{
	"RPC.sol": {
		"RPS": {
			"abi": [
				{
					"inputs": [],
					"stateMutability": "payable",
					"type": "constructor"
				},
				{
					"inputs": [
						{
							"internalType": "enum RPS.eHand",
							"name": "_hand",
							"type": "uint8"
						}
					],
					"name": "createRoom",
					"outputs": [
						{
							"internalType": "uint256",
							"name": "roomNum",
							"type": "uint256"
						}
					],
					"stateMutability": "payable",
					"type": "function"
				},
				{
					"inputs": [
						{
							"internalType": "uint256",
							"name": "roomNum",
							"type": "uint256"
						},
						{
							"internalType": "enum RPS.eHand",
							"name": "_hand",
							"type": "uint8"
						}
					],
					"name": "joinRoom",
					"outputs": [],
					"stateMutability": "payable",
					"type": "function"
				},
				{
					"inputs": [
						{
							"internalType": "uint256",
							"name": "roomNum",
							"type": "uint256"
						}
					],
					"name": "payout",
					"outputs": [],
					"stateMutability": "payable",
					"type": "function"
				}
			],
			"devdoc": {
				"kind": "dev",
				"methods": {},
				"version": 1
			},
			"evm": {
				"assembly": "    /* \"RPC.sol\":75:6892  contract RPS{\r... */\n  mstore(0x40, 0x80)\n    /* \"RPC.sol\":1506:1507  0 */\n  0x00\n    /* \"RPC.sol\":1491:1507  uint roomLen = 0 */\n  0x01\n  sstore\n    /* \"RPC.sol\":75:6892  contract RPS{\r... */\n  dataSize(sub_0)\n  dup1\n  dataOffset(sub_0)\n  0x00\n  codecopy\n  0x00\n  return\nstop\n\nsub_0: assembly {\n        /* \"RPC.sol\":75:6892  contract RPS{\r... */\n      mstore(0x40, 0x80)\n      jumpi(tag_1, lt(calldatasize, 0x04))\n      shr(0xe0, calldataload(0x00))\n      dup1\n      0x0f36f3b5\n      eq\n      tag_2\n      jumpi\n      dup1\n      0x79b15776\n      eq\n      tag_3\n      jumpi\n      dup1\n      0xe1152343\n      eq\n      tag_4\n      jumpi\n    tag_1:\n      0x00\n      dup1\n      revert\n        /* \"RPC.sol\":1926:3047  function createRoom (eHand _hand) public payable isValidHand(_hand) returns (uint roomNum){\r... */\n    tag_2:\n      tag_5\n      0x04\n      dup1\n      calldatasize\n      sub\n      dup2\n      add\n      swap1\n      tag_6\n      swap2\n      swap1\n      tag_7\n      jump\t// in\n    tag_6:\n      tag_8\n      jump\t// in\n    tag_5:\n      mload(0x40)\n      tag_9\n      swap2\n      swap1\n      tag_10\n      jump\t// in\n    tag_9:\n      mload(0x40)\n      dup1\n      swap2\n      sub\n      swap1\n      return\n        /* \"RPC.sol\":3055:3732  function joinRoom (uint roomNum, eHand _hand) public payable isValidHand(_hand){\r... */\n    tag_3:\n      tag_11\n      0x04\n      dup1\n      calldatasize\n      sub\n      dup2\n      add\n      swap1\n      tag_12\n      swap2\n      swap1\n      tag_13\n      jump\t// in\n    tag_12:\n      tag_14\n      jump\t// in\n    tag_11:\n      stop\n        /* \"RPC.sol\":5405:6885  function payout(uint roomNum) public payable isPlayer(roomNum,msg.sender){\r... */\n    tag_4:\n      tag_15\n      0x04\n      dup1\n      calldatasize\n      sub\n      dup2\n      add\n      swap1\n      tag_16\n      swap2\n      swap1\n      tag_17\n      jump\t// in\n    tag_16:\n      tag_18\n      jump\t// in\n    tag_15:\n      stop\n        /* \"RPC.sol\":1926:3047  function createRoom (eHand _hand) public payable isValidHand(_hand) returns (uint roomNum){\r... */\n    tag_8:\n        /* \"RPC.sol\":2003:2015  uint roomNum */\n      0x00\n        /* \"RPC.sol\":1987:1992  _hand */\n      dup2\n        /* \"RPC.sol\":1789:1799  eHand.rock */\n      0x00\n        /* \"RPC.sol\":1780:1799  _hand == eHand.rock */\n      0x02\n      dup2\n      gt\n      iszero\n      tag_20\n      jumpi\n      tag_21\n      tag_22\n      jump\t// in\n    tag_21:\n    tag_20:\n        /* \"RPC.sol\":1780:1785  _hand */\n      dup2\n        /* \"RPC.sol\":1780:1799  _hand == eHand.rock */\n      0x02\n      dup2\n      gt\n      iszero\n      tag_23\n      jumpi\n      tag_24\n      tag_22\n      jump\t// in\n    tag_24:\n    tag_23:\n      eq\n        /* \"RPC.sol\":1779:1826  (_hand == eHand.rock) || (_hand == eHand.paper) */\n      dup1\n      tag_25\n      jumpi\n      pop\n        /* \"RPC.sol\":1814:1825  eHand.paper */\n      0x01\n        /* \"RPC.sol\":1805:1825  _hand == eHand.paper */\n      0x02\n      dup2\n      gt\n      iszero\n      tag_26\n      jumpi\n      tag_27\n      tag_22\n      jump\t// in\n    tag_27:\n    tag_26:\n        /* \"RPC.sol\":1805:1810  _hand */\n      dup2\n        /* \"RPC.sol\":1805:1825  _hand == eHand.paper */\n      0x02\n      dup2\n      gt\n      iszero\n      tag_28\n      jumpi\n      tag_29\n      tag_22\n      jump\t// in\n    tag_29:\n    tag_28:\n      eq\n        /* \"RPC.sol\":1779:1826  (_hand == eHand.rock) || (_hand == eHand.paper) */\n    tag_25:\n        /* \"RPC.sol\":1779:1855  (_hand == eHand.rock) || (_hand == eHand.paper) || (_hand == eHand.scissors) */\n      dup1\n      tag_30\n      jumpi\n      pop\n        /* \"RPC.sol\":1840:1854  eHand.scissors */\n      0x02\n        /* \"RPC.sol\":1831:1854  _hand == eHand.scissors */\n      dup1\n      dup2\n      gt\n      iszero\n      tag_31\n      jumpi\n      tag_32\n      tag_22\n      jump\t// in\n    tag_32:\n    tag_31:\n        /* \"RPC.sol\":1831:1836  _hand */\n      dup2\n        /* \"RPC.sol\":1831:1854  _hand == eHand.scissors */\n      0x02\n      dup2\n      gt\n      iszero\n      tag_33\n      jumpi\n      tag_34\n      tag_22\n      jump\t// in\n    tag_34:\n    tag_33:\n      eq\n        /* \"RPC.sol\":1779:1855  (_hand == eHand.rock) || (_hand == eHand.paper) || (_hand == eHand.scissors) */\n    tag_30:\n        /* \"RPC.sol\":1771:1856  require((_hand == eHand.rock) || (_hand == eHand.paper) || (_hand == eHand.scissors)) */\n      tag_35\n      jumpi\n      0x00\n      dup1\n      revert\n    tag_35:\n        /* \"RPC.sol\":2295:2868  fGame({\r... */\n      mload(0x40)\n      dup1\n      0x80\n      add\n      0x40\n      mstore\n      dup1\n        /* \"RPC.sol\":2418:2623  fPlayer({\r... */\n      mload(0x40)\n      dup1\n      0x80\n      add\n      0x40\n      mstore\n      dup1\n        /* \"RPC.sol\":2491:2501  msg.sender */\n      caller\n        /* \"RPC.sol\":2418:2623  fPlayer({\r... */\n      0xffffffffffffffffffffffffffffffffffffffff\n      and\n      dup2\n      mstore\n      0x20\n      add\n        /* \"RPC.sol\":2598:2607  msg.value */\n      callvalue\n        /* \"RPC.sol\":2418:2623  fPlayer({\r... */\n      dup2\n      mstore\n      0x20\n      add\n        /* \"RPC.sol\":2452:2457  _hand */\n      dup7\n        /* \"RPC.sol\":2418:2623  fPlayer({\r... */\n      0x02\n      dup2\n      gt\n      iszero\n      tag_37\n      jumpi\n      tag_38\n      tag_22\n      jump\t// in\n    tag_38:\n    tag_37:\n      dup2\n      mstore\n      0x20\n      add\n        /* \"RPC.sol\":2535:2561  ePlayerState.STATE_PENDING */\n      0x03\n        /* \"RPC.sol\":2418:2623  fPlayer({\r... */\n      dup1\n      dup2\n      gt\n      iszero\n      tag_39\n      jumpi\n      tag_40\n      tag_22\n      jump\t// in\n    tag_40:\n    tag_39:\n      dup2\n      mstore\n      pop\n        /* \"RPC.sol\":2295:2868  fGame({\r... */\n      dup2\n      mstore\n      0x20\n      add\n        /* \"RPC.sol\":2364:2392  eGameState.STATE_NOT_STARTED */\n      0x00\n        /* \"RPC.sol\":2295:2868  fGame({\r... */\n      0x03\n      dup2\n      gt\n      iszero\n      tag_41\n      jumpi\n      tag_42\n      tag_22\n      jump\t// in\n    tag_42:\n    tag_41:\n      dup2\n      mstore\n      0x20\n      add\n        /* \"RPC.sol\":2654:2856  fPlayer({\r... */\n      mload(0x40)\n      dup1\n      0x80\n      add\n      0x40\n      mstore\n      dup1\n        /* \"RPC.sol\":2732:2742  msg.sender */\n      caller\n        /* \"RPC.sol\":2654:2856  fPlayer({\r... */\n      0xffffffffffffffffffffffffffffffffffffffff\n      and\n      dup2\n      mstore\n      0x20\n      add\n        /* \"RPC.sol\":2839:2840  0 */\n      0x00\n        /* \"RPC.sol\":2654:2856  fPlayer({\r... */\n      dup2\n      mstore\n      0x20\n      add\n        /* \"RPC.sol\":2688:2698  eHand.rock */\n      0x00\n        /* \"RPC.sol\":2654:2856  fPlayer({\r... */\n      0x02\n      dup2\n      gt\n      iszero\n      tag_43\n      jumpi\n      tag_44\n      tag_22\n      jump\t// in\n    tag_44:\n    tag_43:\n      dup2\n      mstore\n      0x20\n      add\n        /* \"RPC.sol\":2776:2802  ePlayerState.STATE_PENDING */\n      0x03\n        /* \"RPC.sol\":2654:2856  fPlayer({\r... */\n      dup1\n      dup2\n      gt\n      iszero\n      tag_45\n      jumpi\n      tag_46\n      tag_22\n      jump\t// in\n    tag_46:\n    tag_45:\n      dup2\n      mstore\n      pop\n        /* \"RPC.sol\":2295:2868  fGame({\r... */\n      dup2\n      mstore\n      0x20\n      add\n        /* \"RPC.sol\":2328:2337  msg.value */\n      callvalue\n        /* \"RPC.sol\":2295:2868  fGame({\r... */\n      dup2\n      mstore\n      pop\n        /* \"RPC.sol\":2278:2283  rooms */\n      0x00\n        /* \"RPC.sol\":2278:2292  rooms[roomLen] */\n      dup1\n        /* \"RPC.sol\":2284:2291  roomLen */\n      sload(0x01)\n        /* \"RPC.sol\":2278:2292  rooms[roomLen] */\n      dup2\n      mstore\n      0x20\n      add\n      swap1\n      dup2\n      mstore\n      0x20\n      add\n      0x00\n      keccak256\n        /* \"RPC.sol\":2278:2868  rooms[roomLen] = fGame({\r... */\n      0x00\n      dup3\n      add\n      mload\n      dup2\n      0x00\n      add\n      0x00\n      dup3\n      add\n      mload\n      dup2\n      0x00\n      add\n      exp(0x0100, 0x00)\n      dup2\n      sload\n      dup2\n      0xffffffffffffffffffffffffffffffffffffffff\n      mul\n      not\n      and\n      swap1\n      dup4\n      0xffffffffffffffffffffffffffffffffffffffff\n      and\n      mul\n      or\n      swap1\n      sstore\n      pop\n      0x20\n      dup3\n      add\n      mload\n      dup2\n      0x01\n      add\n      sstore\n      0x40\n      dup3\n      add\n      mload\n      dup2\n      0x02\n      add\n      exp(0x0100, 0x00)\n      dup2\n      sload\n      dup2\n      0xff\n      mul\n      not\n      and\n      swap1\n      dup4\n      0x02\n      dup2\n      gt\n      iszero\n      tag_47\n      jumpi\n      tag_48\n      tag_22\n      jump\t// in\n    tag_48:\n    tag_47:\n      mul\n      or\n      swap1\n      sstore\n      pop\n      0x60\n      dup3\n      add\n      mload\n      dup2\n      0x02\n      add\n      exp(0x0100, 0x01)\n      dup2\n      sload\n      dup2\n      0xff\n      mul\n      not\n      and\n      swap1\n      dup4\n      0x03\n      dup2\n      gt\n      iszero\n      tag_49\n      jumpi\n      tag_50\n      tag_22\n      jump\t// in\n    tag_50:\n    tag_49:\n      mul\n      or\n      swap1\n      sstore\n      pop\n      pop\n      pop\n      0x20\n      dup3\n      add\n      mload\n      dup2\n      0x03\n      add\n      exp(0x0100, 0x00)\n      dup2\n      sload\n      dup2\n      0xff\n      mul\n      not\n      and\n      swap1\n      dup4\n      0x03\n      dup2\n      gt\n      iszero\n      tag_51\n      jumpi\n      tag_52\n      tag_22\n      jump\t// in\n    tag_52:\n    tag_51:\n      mul\n      or\n      swap1\n      sstore\n      pop\n      0x40\n      dup3\n      add\n      mload\n      dup2\n      0x04\n      add\n      0x00\n      dup3\n      add\n      mload\n      dup2\n      0x00\n      add\n      exp(0x0100, 0x00)\n      dup2\n      sload\n      dup2\n      0xffffffffffffffffffffffffffffffffffffffff\n      mul\n      not\n      and\n      swap1\n      dup4\n      0xffffffffffffffffffffffffffffffffffffffff\n      and\n      mul\n      or\n      swap1\n      sstore\n      pop\n      0x20\n      dup3\n      add\n      mload\n      dup2\n      0x01\n      add\n      sstore\n      0x40\n      dup3\n      add\n      mload\n      dup2\n      0x02\n      add\n      exp(0x0100, 0x00)\n      dup2\n      sload\n      dup2\n      0xff\n      mul\n      not\n      and\n      swap1\n      dup4\n      0x02\n      dup2\n      gt\n      iszero\n      tag_53\n      jumpi\n      tag_54\n      tag_22\n      jump\t// in\n    tag_54:\n    tag_53:\n      mul\n      or\n      swap1\n      sstore\n      pop\n      0x60\n      dup3\n      add\n      mload\n      dup2\n      0x02\n      add\n      exp(0x0100, 0x01)\n      dup2\n      sload\n      dup2\n      0xff\n      mul\n      not\n      and\n      swap1\n      dup4\n      0x03\n      dup2\n      gt\n      iszero\n      tag_55\n      jumpi\n      tag_56\n      tag_22\n      jump\t// in\n    tag_56:\n    tag_55:\n      mul\n      or\n      swap1\n      sstore\n      pop\n      pop\n      pop\n      0x60\n      dup3\n      add\n      mload\n      dup2\n      0x07\n      add\n      sstore\n      swap1\n      pop\n      pop\n        /* \"RPC.sol\":2889:2896  roomLen */\n      sload(0x01)\n        /* \"RPC.sol\":2879:2896  roomNum = roomLen */\n      swap2\n      pop\n        /* \"RPC.sol\":3007:3008  1 */\n      0x01\n        /* \"RPC.sol\":2999:3006  roomLen */\n      dup1\n      sload\n        /* \"RPC.sol\":2999:3008  roomLen+1 */\n      tag_57\n      swap2\n      swap1\n      tag_58\n      jump\t// in\n    tag_57:\n        /* \"RPC.sol\":2989:2996  roomLen */\n      0x01\n        /* \"RPC.sol\":2989:3008  roomLen = roomLen+1 */\n      dup2\n      swap1\n      sstore\n      pop\n        /* \"RPC.sol\":1926:3047  function createRoom (eHand _hand) public payable isValidHand(_hand) returns (uint roomNum){\r... */\n      pop\n      swap2\n      swap1\n      pop\n      jump\t// out\n        /* \"RPC.sol\":3055:3732  function joinRoom (uint roomNum, eHand _hand) public payable isValidHand(_hand){\r... */\n    tag_14:\n        /* \"RPC.sol\":3128:3133  _hand */\n      dup1\n        /* \"RPC.sol\":1789:1799  eHand.rock */\n      0x00\n        /* \"RPC.sol\":1780:1799  _hand == eHand.rock */\n      0x02\n      dup2\n      gt\n      iszero\n      tag_60\n      jumpi\n      tag_61\n      tag_22\n      jump\t// in\n    tag_61:\n    tag_60:\n        /* \"RPC.sol\":1780:1785  _hand */\n      dup2\n        /* \"RPC.sol\":1780:1799  _hand == eHand.rock */\n      0x02\n      dup2\n      gt\n      iszero\n      tag_62\n      jumpi\n      tag_63\n      tag_22\n      jump\t// in\n    tag_63:\n    tag_62:\n      eq\n        /* \"RPC.sol\":1779:1826  (_hand == eHand.rock) || (_hand == eHand.paper) */\n      dup1\n      tag_64\n      jumpi\n      pop\n        /* \"RPC.sol\":1814:1825  eHand.paper */\n      0x01\n        /* \"RPC.sol\":1805:1825  _hand == eHand.paper */\n      0x02\n      dup2\n      gt\n      iszero\n      tag_65\n      jumpi\n      tag_66\n      tag_22\n      jump\t// in\n    tag_66:\n    tag_65:\n        /* \"RPC.sol\":1805:1810  _hand */\n      dup2\n        /* \"RPC.sol\":1805:1825  _hand == eHand.paper */\n      0x02\n      dup2\n      gt\n      iszero\n      tag_67\n      jumpi\n      tag_68\n      tag_22\n      jump\t// in\n    tag_68:\n    tag_67:\n      eq\n        /* \"RPC.sol\":1779:1826  (_hand == eHand.rock) || (_hand == eHand.paper) */\n    tag_64:\n        /* \"RPC.sol\":1779:1855  (_hand == eHand.rock) || (_hand == eHand.paper) || (_hand == eHand.scissors) */\n      dup1\n      tag_69\n      jumpi\n      pop\n        /* \"RPC.sol\":1840:1854  eHand.scissors */\n      0x02\n        /* \"RPC.sol\":1831:1854  _hand == eHand.scissors */\n      dup1\n      dup2\n      gt\n      iszero\n      tag_70\n      jumpi\n      tag_71\n      tag_22\n      jump\t// in\n    tag_71:\n    tag_70:\n        /* \"RPC.sol\":1831:1836  _hand */\n      dup2\n        /* \"RPC.sol\":1831:1854  _hand == eHand.scissors */\n      0x02\n      dup2\n      gt\n      iszero\n      tag_72\n      jumpi\n      tag_73\n      tag_22\n      jump\t// in\n    tag_73:\n    tag_72:\n      eq\n        /* \"RPC.sol\":1779:1855  (_hand == eHand.rock) || (_hand == eHand.paper) || (_hand == eHand.scissors) */\n    tag_69:\n        /* \"RPC.sol\":1771:1856  require((_hand == eHand.rock) || (_hand == eHand.paper) || (_hand == eHand.scissors)) */\n      tag_74\n      jumpi\n      0x00\n      dup1\n      revert\n    tag_74:\n        /* \"RPC.sol\":3256:3441  fPlayer({\r... */\n      mload(0x40)\n      dup1\n      0x80\n      add\n      0x40\n      mstore\n      dup1\n        /* \"RPC.sol\":3321:3331  msg.sender */\n      caller\n        /* \"RPC.sol\":3256:3441  fPlayer({\r... */\n      0xffffffffffffffffffffffffffffffffffffffff\n      and\n      dup2\n      mstore\n      0x20\n      add\n        /* \"RPC.sol\":3420:3429  msg.value */\n      callvalue\n        /* \"RPC.sol\":3256:3441  fPlayer({\r... */\n      dup2\n      mstore\n      0x20\n      add\n        /* \"RPC.sol\":3286:3291  _hand */\n      dup4\n        /* \"RPC.sol\":3256:3441  fPlayer({\r... */\n      0x02\n      dup2\n      gt\n      iszero\n      tag_76\n      jumpi\n      tag_77\n      tag_22\n      jump\t// in\n    tag_77:\n    tag_76:\n      dup2\n      mstore\n      0x20\n      add\n        /* \"RPC.sol\":3361:3387  ePlayerState.STATE_PENDING */\n      0x03\n        /* \"RPC.sol\":3256:3441  fPlayer({\r... */\n      dup1\n      dup2\n      gt\n      iszero\n      tag_78\n      jumpi\n      tag_79\n      tag_22\n      jump\t// in\n    tag_79:\n    tag_78:\n      dup2\n      mstore\n      pop\n        /* \"RPC.sol\":3224:3229  rooms */\n      0x00\n        /* \"RPC.sol\":3224:3238  rooms[roomNum] */\n      dup1\n        /* \"RPC.sol\":3230:3237  roomNum */\n      dup6\n        /* \"RPC.sol\":3224:3238  rooms[roomNum] */\n      dup2\n      mstore\n      0x20\n      add\n      swap1\n      dup2\n      mstore\n      0x20\n      add\n      0x00\n      keccak256\n        /* \"RPC.sol\":3224:3253  rooms[roomNum].gameChallenger */\n      0x04\n      add\n        /* \"RPC.sol\":3224:3441  rooms[roomNum].gameChallenger = fPlayer({\r... */\n      0x00\n      dup3\n      add\n      mload\n      dup2\n      0x00\n      add\n      exp(0x0100, 0x00)\n      dup2\n      sload\n      dup2\n      0xffffffffffffffffffffffffffffffffffffffff\n      mul\n      not\n      and\n      swap1\n      dup4\n      0xffffffffffffffffffffffffffffffffffffffff\n      and\n      mul\n      or\n      swap1\n      sstore\n      pop\n      0x20\n      dup3\n      add\n      mload\n      dup2\n      0x01\n      add\n      sstore\n      0x40\n      dup3\n      add\n      mload\n      dup2\n      0x02\n      add\n      exp(0x0100, 0x00)\n      dup2\n      sload\n      dup2\n      0xff\n      mul\n      not\n      and\n      swap1\n      dup4\n      0x02\n      dup2\n      gt\n      iszero\n      tag_80\n      jumpi\n      tag_81\n      tag_22\n      jump\t// in\n    tag_81:\n    tag_80:\n      mul\n      or\n      swap1\n      sstore\n      pop\n      0x60\n      dup3\n      add\n      mload\n      dup2\n      0x02\n      add\n      exp(0x0100, 0x01)\n      dup2\n      sload\n      dup2\n      0xff\n      mul\n      not\n      and\n      swap1\n      dup4\n      0x03\n      dup2\n      gt\n      iszero\n      tag_82\n      jumpi\n      tag_83\n      tag_22\n      jump\t// in\n    tag_83:\n    tag_82:\n      mul\n      or\n      swap1\n      sstore\n      pop\n      swap1\n      pop\n      pop\n        /* \"RPC.sol\":3506:3515  msg.value */\n      callvalue\n        /* \"RPC.sol\":3479:3484  rooms */\n      0x00\n        /* \"RPC.sol\":3479:3493  rooms[roomNum] */\n      dup1\n        /* \"RPC.sol\":3485:3492  roomNum */\n      dup6\n        /* \"RPC.sol\":3479:3493  rooms[roomNum] */\n      dup2\n      mstore\n      0x20\n      add\n      swap1\n      dup2\n      mstore\n      0x20\n      add\n      0x00\n      keccak256\n        /* \"RPC.sol\":3479:3503  rooms[roomNum].betAmount */\n      0x07\n      add\n      sload\n        /* \"RPC.sol\":3479:3515  rooms[roomNum].betAmount + msg.value */\n      tag_84\n      swap2\n      swap1\n      tag_58\n      jump\t// in\n    tag_84:\n        /* \"RPC.sol\":3452:3457  rooms */\n      0x00\n        /* \"RPC.sol\":3452:3466  rooms[roomNum] */\n      dup1\n        /* \"RPC.sol\":3458:3465  roomNum */\n      dup6\n        /* \"RPC.sol\":3452:3466  rooms[roomNum] */\n      dup2\n      mstore\n      0x20\n      add\n      swap1\n      dup2\n      mstore\n      0x20\n      add\n      0x00\n      keccak256\n        /* \"RPC.sol\":3452:3476  rooms[roomNum].betAmount */\n      0x07\n      add\n        /* \"RPC.sol\":3452:3515  rooms[roomNum].betAmount = rooms[roomNum].betAmount + msg.value */\n      dup2\n      swap1\n      sstore\n      pop\n        /* \"RPC.sol\":3703:3724  compareHands(roomNum) */\n      tag_85\n        /* \"RPC.sol\":3716:3723  roomNum */\n      dup4\n        /* \"RPC.sol\":3703:3715  compareHands */\n      tag_86\n        /* \"RPC.sol\":3703:3724  compareHands(roomNum) */\n      jump\t// in\n    tag_85:\n        /* \"RPC.sol\":3055:3732  function joinRoom (uint roomNum, eHand _hand) public payable isValidHand(_hand){\r... */\n      pop\n      pop\n      pop\n      jump\t// out\n        /* \"RPC.sol\":5405:6885  function payout(uint roomNum) public payable isPlayer(roomNum,msg.sender){\r... */\n    tag_18:\n        /* \"RPC.sol\":5459:5466  roomNum */\n      dup1\n        /* \"RPC.sol\":5467:5477  msg.sender */\n      caller\n        /* \"RPC.sol\":5089:5094  rooms */\n      0x00\n        /* \"RPC.sol\":5089:5103  rooms[roomNum] */\n      dup1\n        /* \"RPC.sol\":5095:5102  roomNum */\n      dup4\n        /* \"RPC.sol\":5089:5103  rooms[roomNum] */\n      dup2\n      mstore\n      0x20\n      add\n      swap1\n      dup2\n      mstore\n      0x20\n      add\n      0x00\n      keccak256\n        /* \"RPC.sol\":5089:5112  rooms[roomNum].gameHost */\n      0x00\n      add\n        /* \"RPC.sol\":5089:5117  rooms[roomNum].gameHost.addr */\n      0x00\n      add\n      0x00\n      swap1\n      sload\n      swap1\n      0x0100\n      exp\n      swap1\n      div\n      0xffffffffffffffffffffffffffffffffffffffff\n      and\n        /* \"RPC.sol\":5075:5117  senderAddr == rooms[roomNum].gameHost.addr */\n      0xffffffffffffffffffffffffffffffffffffffff\n      and\n        /* \"RPC.sol\":5075:5085  senderAddr */\n      dup2\n        /* \"RPC.sol\":5075:5117  senderAddr == rooms[roomNum].gameHost.addr */\n      0xffffffffffffffffffffffffffffffffffffffff\n      and\n      eq\n        /* \"RPC.sol\":5075:5169  senderAddr == rooms[roomNum].gameHost.addr || senderAddr == rooms[roomNum].gameChallenger.addr */\n      dup1\n      tag_88\n      jumpi\n      pop\n        /* \"RPC.sol\":5135:5140  rooms */\n      0x00\n        /* \"RPC.sol\":5135:5149  rooms[roomNum] */\n      dup1\n        /* \"RPC.sol\":5141:5148  roomNum */\n      dup4\n        /* \"RPC.sol\":5135:5149  rooms[roomNum] */\n      dup2\n      mstore\n      0x20\n      add\n      swap1\n      dup2\n      mstore\n      0x20\n      add\n      0x00\n      keccak256\n        /* \"RPC.sol\":5135:5164  rooms[roomNum].gameChallenger */\n      0x04\n      add\n        /* \"RPC.sol\":5135:5169  rooms[roomNum].gameChallenger.addr */\n      0x00\n      add\n      0x00\n      swap1\n      sload\n      swap1\n      0x0100\n      exp\n      swap1\n      div\n      0xffffffffffffffffffffffffffffffffffffffff\n      and\n        /* \"RPC.sol\":5121:5169  senderAddr == rooms[roomNum].gameChallenger.addr */\n      0xffffffffffffffffffffffffffffffffffffffff\n      and\n        /* \"RPC.sol\":5121:5131  senderAddr */\n      dup2\n        /* \"RPC.sol\":5121:5169  senderAddr == rooms[roomNum].gameChallenger.addr */\n      0xffffffffffffffffffffffffffffffffffffffff\n      and\n      eq\n        /* \"RPC.sol\":5075:5169  senderAddr == rooms[roomNum].gameHost.addr || senderAddr == rooms[roomNum].gameChallenger.addr */\n    tag_88:\n        /* \"RPC.sol\":5066:5170  require( senderAddr == rooms[roomNum].gameHost.addr || senderAddr == rooms[roomNum].gameChallenger.addr) */\n      tag_89\n      jumpi\n      0x00\n      dup1\n      revert\n    tag_89:\n        /* \"RPC.sol\":5531:5553  ePlayerState.STATE_TIE */\n      0x02\n        /* \"RPC.sol\":5492:5553  rooms[roomNum].gameHost.playerState == ePlayerState.STATE_TIE */\n      0x03\n      dup2\n      gt\n      iszero\n      tag_91\n      jumpi\n      tag_92\n      tag_22\n      jump\t// in\n    tag_92:\n    tag_91:\n        /* \"RPC.sol\":5492:5497  rooms */\n      0x00\n        /* \"RPC.sol\":5492:5506  rooms[roomNum] */\n      dup1\n        /* \"RPC.sol\":5498:5505  roomNum */\n      dup6\n        /* \"RPC.sol\":5492:5506  rooms[roomNum] */\n      dup2\n      mstore\n      0x20\n      add\n      swap1\n      dup2\n      mstore\n      0x20\n      add\n      0x00\n      keccak256\n        /* \"RPC.sol\":5492:5515  rooms[roomNum].gameHost */\n      0x00\n      add\n        /* \"RPC.sol\":5492:5527  rooms[roomNum].gameHost.playerState */\n      0x02\n      add\n      0x01\n      swap1\n      sload\n      swap1\n      0x0100\n      exp\n      swap1\n      div\n      0xff\n      and\n        /* \"RPC.sol\":5492:5553  rooms[roomNum].gameHost.playerState == ePlayerState.STATE_TIE */\n      0x03\n      dup2\n      gt\n      iszero\n      tag_93\n      jumpi\n      tag_94\n      tag_22\n      jump\t// in\n    tag_94:\n    tag_93:\n      eq\n        /* \"RPC.sol\":5492:5624  rooms[roomNum].gameHost.playerState == ePlayerState.STATE_TIE && rooms[roomNum].gameChallenger.playerState == ePlayerState.STATE_TIE */\n      dup1\n      iszero\n      tag_95\n      jumpi\n      pop\n        /* \"RPC.sol\":5602:5624  ePlayerState.STATE_TIE */\n      0x02\n        /* \"RPC.sol\":5557:5624  rooms[roomNum].gameChallenger.playerState == ePlayerState.STATE_TIE */\n      0x03\n      dup2\n      gt\n      iszero\n      tag_96\n      jumpi\n      tag_97\n      tag_22\n      jump\t// in\n    tag_97:\n    tag_96:\n        /* \"RPC.sol\":5557:5562  rooms */\n      0x00\n        /* \"RPC.sol\":5557:5571  rooms[roomNum] */\n      dup1\n        /* \"RPC.sol\":5563:5570  roomNum */\n      dup6\n        /* \"RPC.sol\":5557:5571  rooms[roomNum] */\n      dup2\n      mstore\n      0x20\n      add\n      swap1\n      dup2\n      mstore\n      0x20\n      add\n      0x00\n      keccak256\n        /* \"RPC.sol\":5557:5586  rooms[roomNum].gameChallenger */\n      0x04\n      add\n        /* \"RPC.sol\":5557:5598  rooms[roomNum].gameChallenger.playerState */\n      0x02\n      add\n      0x01\n      swap1\n      sload\n      swap1\n      0x0100\n      exp\n      swap1\n      div\n      0xff\n      and\n        /* \"RPC.sol\":5557:5624  rooms[roomNum].gameChallenger.playerState == ePlayerState.STATE_TIE */\n      0x03\n      dup2\n      gt\n      iszero\n      tag_98\n      jumpi\n      tag_99\n      tag_22\n      jump\t// in\n    tag_99:\n    tag_98:\n      eq\n        /* \"RPC.sol\":5492:5624  rooms[roomNum].gameHost.playerState == ePlayerState.STATE_TIE && rooms[roomNum].gameChallenger.playerState == ePlayerState.STATE_TIE */\n    tag_95:\n        /* \"RPC.sol\":5489:6878  if(rooms[roomNum].gameHost.playerState == ePlayerState.STATE_TIE && rooms[roomNum].gameChallenger.playerState == ePlayerState.STATE_TIE)\r... */\n      iszero\n      tag_100\n      jumpi\n        /* \"RPC.sol\":5668:5673  rooms */\n      0x00\n        /* \"RPC.sol\":5668:5682  rooms[roomNum] */\n      dup1\n        /* \"RPC.sol\":5674:5681  roomNum */\n      dup5\n        /* \"RPC.sol\":5668:5682  rooms[roomNum] */\n      dup2\n      mstore\n      0x20\n      add\n      swap1\n      dup2\n      mstore\n      0x20\n      add\n      0x00\n      keccak256\n        /* \"RPC.sol\":5668:5691  rooms[roomNum].gameHost */\n      0x00\n      add\n        /* \"RPC.sol\":5668:5696  rooms[roomNum].gameHost.addr */\n      0x00\n      add\n      0x00\n      swap1\n      sload\n      swap1\n      0x0100\n      exp\n      swap1\n      div\n      0xffffffffffffffffffffffffffffffffffffffff\n      and\n        /* \"RPC.sol\":5668:5705  rooms[roomNum].gameHost.addr.transfer */\n      0xffffffffffffffffffffffffffffffffffffffff\n      and\n        /* \"RPC.sol\":5668:5746  rooms[roomNum].gameHost.addr.transfer(rooms[roomNum].gameHost.playerBetAmount) */\n      0x08fc\n        /* \"RPC.sol\":5706:5711  rooms */\n      0x00\n        /* \"RPC.sol\":5706:5720  rooms[roomNum] */\n      dup1\n        /* \"RPC.sol\":5712:5719  roomNum */\n      dup7\n        /* \"RPC.sol\":5706:5720  rooms[roomNum] */\n      dup2\n      mstore\n      0x20\n      add\n      swap1\n      dup2\n      mstore\n      0x20\n      add\n      0x00\n      keccak256\n        /* \"RPC.sol\":5706:5729  rooms[roomNum].gameHost */\n      0x00\n      add\n        /* \"RPC.sol\":5706:5745  rooms[roomNum].gameHost.playerBetAmount */\n      0x01\n      add\n      sload\n        /* \"RPC.sol\":5668:5746  rooms[roomNum].gameHost.addr.transfer(rooms[roomNum].gameHost.playerBetAmount) */\n      swap1\n      dup2\n      iszero\n      mul\n      swap1\n      mload(0x40)\n      0x00\n      mload(0x40)\n      dup1\n      dup4\n      sub\n      dup2\n      dup6\n      dup9\n      dup9\n      call\n      swap4\n      pop\n      pop\n      pop\n      pop\n      iszero\n      dup1\n      iszero\n      tag_102\n      jumpi\n      returndatasize\n      0x00\n      dup1\n      returndatacopy\n      revert(0x00, returndatasize)\n    tag_102:\n      pop\n        /* \"RPC.sol\":5805:5810  rooms */\n      0x00\n        /* \"RPC.sol\":5805:5819  rooms[roomNum] */\n      dup1\n        /* \"RPC.sol\":5811:5818  roomNum */\n      dup5\n        /* \"RPC.sol\":5805:5819  rooms[roomNum] */\n      dup2\n      mstore\n      0x20\n      add\n      swap1\n      dup2\n      mstore\n      0x20\n      add\n      0x00\n      keccak256\n        /* \"RPC.sol\":5805:5834  rooms[roomNum].gameChallenger */\n      0x04\n      add\n        /* \"RPC.sol\":5805:5839  rooms[roomNum].gameChallenger.addr */\n      0x00\n      add\n      0x00\n      swap1\n      sload\n      swap1\n      0x0100\n      exp\n      swap1\n      div\n      0xffffffffffffffffffffffffffffffffffffffff\n      and\n        /* \"RPC.sol\":5805:5848  rooms[roomNum].gameChallenger.addr.transfer */\n      0xffffffffffffffffffffffffffffffffffffffff\n      and\n        /* \"RPC.sol\":5805:5895  rooms[roomNum].gameChallenger.addr.transfer(rooms[roomNum].gameChallenger.playerBetAmount) */\n      0x08fc\n        /* \"RPC.sol\":5849:5854  rooms */\n      0x00\n        /* \"RPC.sol\":5849:5863  rooms[roomNum] */\n      dup1\n        /* \"RPC.sol\":5855:5862  roomNum */\n      dup7\n        /* \"RPC.sol\":5849:5863  rooms[roomNum] */\n      dup2\n      mstore\n      0x20\n      add\n      swap1\n      dup2\n      mstore\n      0x20\n      add\n      0x00\n      keccak256\n        /* \"RPC.sol\":5849:5878  rooms[roomNum].gameChallenger */\n      0x04\n      add\n        /* \"RPC.sol\":5849:5894  rooms[roomNum].gameChallenger.playerBetAmount */\n      0x01\n      add\n      sload\n        /* \"RPC.sol\":5805:5895  rooms[roomNum].gameChallenger.addr.transfer(rooms[roomNum].gameChallenger.playerBetAmount) */\n      swap1\n      dup2\n      iszero\n      mul\n      swap1\n      mload(0x40)\n      0x00\n      mload(0x40)\n      dup1\n      dup4\n      sub\n      dup2\n      dup6\n      dup9\n      dup9\n      call\n      swap4\n      pop\n      pop\n      pop\n      pop\n      iszero\n      dup1\n      iszero\n      tag_104\n      jumpi\n      returndatasize\n      0x00\n      dup1\n      returndatacopy\n      revert(0x00, returndatasize)\n    tag_104:\n      pop\n        /* \"RPC.sol\":5489:6878  if(rooms[roomNum].gameHost.playerState == ePlayerState.STATE_TIE && rooms[roomNum].gameChallenger.playerState == ePlayerState.STATE_TIE)\r... */\n      jump(tag_105)\n    tag_100:\n        /* \"RPC.sol\":6056:6078  ePlayerState.STATE_WIN */\n      0x00\n        /* \"RPC.sol\":6017:6078  rooms[roomNum].gameHost.playerState == ePlayerState.STATE_WIN */\n      0x03\n      dup2\n      gt\n      iszero\n      tag_106\n      jumpi\n      tag_107\n      tag_22\n      jump\t// in\n    tag_107:\n    tag_106:\n        /* \"RPC.sol\":6017:6022  rooms */\n      0x00\n        /* \"RPC.sol\":6017:6031  rooms[roomNum] */\n      dup1\n        /* \"RPC.sol\":6023:6030  roomNum */\n      dup6\n        /* \"RPC.sol\":6017:6031  rooms[roomNum] */\n      dup2\n      mstore\n      0x20\n      add\n      swap1\n      dup2\n      mstore\n      0x20\n      add\n      0x00\n      keccak256\n        /* \"RPC.sol\":6017:6040  rooms[roomNum].gameHost */\n      0x00\n      add\n        /* \"RPC.sol\":6017:6052  rooms[roomNum].gameHost.playerState */\n      0x02\n      add\n      0x01\n      swap1\n      sload\n      swap1\n      0x0100\n      exp\n      swap1\n      div\n      0xff\n      and\n        /* \"RPC.sol\":6017:6078  rooms[roomNum].gameHost.playerState == ePlayerState.STATE_WIN */\n      0x03\n      dup2\n      gt\n      iszero\n      tag_108\n      jumpi\n      tag_109\n      tag_22\n      jump\t// in\n    tag_109:\n    tag_108:\n      eq\n        /* \"RPC.sol\":6014:6867  if(rooms[roomNum].gameHost.playerState == ePlayerState.STATE_WIN)\r... */\n      iszero\n      tag_110\n      jumpi\n        /* \"RPC.sol\":6140:6145  rooms */\n      0x00\n        /* \"RPC.sol\":6140:6154  rooms[roomNum] */\n      dup1\n        /* \"RPC.sol\":6146:6153  roomNum */\n      dup5\n        /* \"RPC.sol\":6140:6154  rooms[roomNum] */\n      dup2\n      mstore\n      0x20\n      add\n      swap1\n      dup2\n      mstore\n      0x20\n      add\n      0x00\n      keccak256\n        /* \"RPC.sol\":6140:6163  rooms[roomNum].gameHost */\n      0x00\n      add\n        /* \"RPC.sol\":6140:6168  rooms[roomNum].gameHost.addr */\n      0x00\n      add\n      0x00\n      swap1\n      sload\n      swap1\n      0x0100\n      exp\n      swap1\n      div\n      0xffffffffffffffffffffffffffffffffffffffff\n      and\n        /* \"RPC.sol\":6140:6177  rooms[roomNum].gameHost.addr.transfer */\n      0xffffffffffffffffffffffffffffffffffffffff\n      and\n        /* \"RPC.sol\":6140:6203  rooms[roomNum].gameHost.addr.transfer(rooms[roomNum].betAmount) */\n      0x08fc\n        /* \"RPC.sol\":6178:6183  rooms */\n      0x00\n        /* \"RPC.sol\":6178:6192  rooms[roomNum] */\n      dup1\n        /* \"RPC.sol\":6184:6191  roomNum */\n      dup7\n        /* \"RPC.sol\":6178:6192  rooms[roomNum] */\n      dup2\n      mstore\n      0x20\n      add\n      swap1\n      dup2\n      mstore\n      0x20\n      add\n      0x00\n      keccak256\n        /* \"RPC.sol\":6178:6202  rooms[roomNum].betAmount */\n      0x07\n      add\n      sload\n        /* \"RPC.sol\":6140:6203  rooms[roomNum].gameHost.addr.transfer(rooms[roomNum].betAmount) */\n      swap1\n      dup2\n      iszero\n      mul\n      swap1\n      mload(0x40)\n      0x00\n      mload(0x40)\n      dup1\n      dup4\n      sub\n      dup2\n      dup6\n      dup9\n      dup9\n      call\n      swap4\n      pop\n      pop\n      pop\n      pop\n      iszero\n      dup1\n      iszero\n      tag_112\n      jumpi\n      returndatasize\n      0x00\n      dup1\n      returndatacopy\n      revert(0x00, returndatasize)\n    tag_112:\n      pop\n        /* \"RPC.sol\":6014:6867  if(rooms[roomNum].gameHost.playerState == ePlayerState.STATE_WIN)\r... */\n      jump(tag_113)\n    tag_110:\n        /* \"RPC.sol\":6321:6343  ePlayerState.STATE_WIN */\n      0x00\n        /* \"RPC.sol\":6276:6343  rooms[roomNum].gameChallenger.playerState == ePlayerState.STATE_WIN */\n      0x03\n      dup2\n      gt\n      iszero\n      tag_114\n      jumpi\n      tag_115\n      tag_22\n      jump\t// in\n    tag_115:\n    tag_114:\n        /* \"RPC.sol\":6276:6281  rooms */\n      0x00\n        /* \"RPC.sol\":6276:6290  rooms[roomNum] */\n      dup1\n        /* \"RPC.sol\":6282:6289  roomNum */\n      dup6\n        /* \"RPC.sol\":6276:6290  rooms[roomNum] */\n      dup2\n      mstore\n      0x20\n      add\n      swap1\n      dup2\n      mstore\n      0x20\n      add\n      0x00\n      keccak256\n        /* \"RPC.sol\":6276:6305  rooms[roomNum].gameChallenger */\n      0x04\n      add\n        /* \"RPC.sol\":6276:6317  rooms[roomNum].gameChallenger.playerState */\n      0x02\n      add\n      0x01\n      swap1\n      sload\n      swap1\n      0x0100\n      exp\n      swap1\n      div\n      0xff\n      and\n        /* \"RPC.sol\":6276:6343  rooms[roomNum].gameChallenger.playerState == ePlayerState.STATE_WIN */\n      0x03\n      dup2\n      gt\n      iszero\n      tag_116\n      jumpi\n      tag_117\n      tag_22\n      jump\t// in\n    tag_117:\n    tag_116:\n      eq\n        /* \"RPC.sol\":6272:6867  if (rooms[roomNum].gameChallenger.playerState == ePlayerState.STATE_WIN)\r... */\n      iszero\n      tag_118\n      jumpi\n        /* \"RPC.sol\":6408:6413  rooms */\n      0x00\n        /* \"RPC.sol\":6408:6422  rooms[roomNum] */\n      dup1\n        /* \"RPC.sol\":6414:6421  roomNum */\n      dup5\n        /* \"RPC.sol\":6408:6422  rooms[roomNum] */\n      dup2\n      mstore\n      0x20\n      add\n      swap1\n      dup2\n      mstore\n      0x20\n      add\n      0x00\n      keccak256\n        /* \"RPC.sol\":6408:6437  rooms[roomNum].gameChallenger */\n      0x04\n      add\n        /* \"RPC.sol\":6408:6442  rooms[roomNum].gameChallenger.addr */\n      0x00\n      add\n      0x00\n      swap1\n      sload\n      swap1\n      0x0100\n      exp\n      swap1\n      div\n      0xffffffffffffffffffffffffffffffffffffffff\n      and\n        /* \"RPC.sol\":6408:6451  rooms[roomNum].gameChallenger.addr.transfer */\n      0xffffffffffffffffffffffffffffffffffffffff\n      and\n        /* \"RPC.sol\":6408:6477  rooms[roomNum].gameChallenger.addr.transfer(rooms[roomNum].betAmount) */\n      0x08fc\n        /* \"RPC.sol\":6452:6457  rooms */\n      0x00\n        /* \"RPC.sol\":6452:6466  rooms[roomNum] */\n      dup1\n        /* \"RPC.sol\":6458:6465  roomNum */\n      dup7\n        /* \"RPC.sol\":6452:6466  rooms[roomNum] */\n      dup2\n      mstore\n      0x20\n      add\n      swap1\n      dup2\n      mstore\n      0x20\n      add\n      0x00\n      keccak256\n        /* \"RPC.sol\":6452:6476  rooms[roomNum].betAmount */\n      0x07\n      add\n      sload\n        /* \"RPC.sol\":6408:6477  rooms[roomNum].gameChallenger.addr.transfer(rooms[roomNum].betAmount) */\n      swap1\n      dup2\n      iszero\n      mul\n      swap1\n      mload(0x40)\n      0x00\n      mload(0x40)\n      dup1\n      dup4\n      sub\n      dup2\n      dup6\n      dup9\n      dup9\n      call\n      swap4\n      pop\n      pop\n      pop\n      pop\n      iszero\n      dup1\n      iszero\n      tag_120\n      jumpi\n      returndatasize\n      0x00\n      dup1\n      returndatacopy\n      revert(0x00, returndatasize)\n    tag_120:\n      pop\n        /* \"RPC.sol\":6272:6867  if (rooms[roomNum].gameChallenger.playerState == ePlayerState.STATE_WIN)\r... */\n      jump(tag_121)\n    tag_118:\n        /* \"RPC.sol\":6570:6575  rooms */\n      0x00\n        /* \"RPC.sol\":6570:6584  rooms[roomNum] */\n      dup1\n        /* \"RPC.sol\":6576:6583  roomNum */\n      dup5\n        /* \"RPC.sol\":6570:6584  rooms[roomNum] */\n      dup2\n      mstore\n      0x20\n      add\n      swap1\n      dup2\n      mstore\n      0x20\n      add\n      0x00\n      keccak256\n        /* \"RPC.sol\":6570:6593  rooms[roomNum].gameHost */\n      0x00\n      add\n        /* \"RPC.sol\":6570:6598  rooms[roomNum].gameHost.addr */\n      0x00\n      add\n      0x00\n      swap1\n      sload\n      swap1\n      0x0100\n      exp\n      swap1\n      div\n      0xffffffffffffffffffffffffffffffffffffffff\n      and\n        /* \"RPC.sol\":6570:6607  rooms[roomNum].gameHost.addr.transfer */\n      0xffffffffffffffffffffffffffffffffffffffff\n      and\n        /* \"RPC.sol\":6570:6648  rooms[roomNum].gameHost.addr.transfer(rooms[roomNum].gameHost.playerBetAmount) */\n      0x08fc\n        /* \"RPC.sol\":6608:6613  rooms */\n      0x00\n        /* \"RPC.sol\":6608:6622  rooms[roomNum] */\n      dup1\n        /* \"RPC.sol\":6614:6621  roomNum */\n      dup7\n        /* \"RPC.sol\":6608:6622  rooms[roomNum] */\n      dup2\n      mstore\n      0x20\n      add\n      swap1\n      dup2\n      mstore\n      0x20\n      add\n      0x00\n      keccak256\n        /* \"RPC.sol\":6608:6631  rooms[roomNum].gameHost */\n      0x00\n      add\n        /* \"RPC.sol\":6608:6647  rooms[roomNum].gameHost.playerBetAmount */\n      0x01\n      add\n      sload\n        /* \"RPC.sol\":6570:6648  rooms[roomNum].gameHost.addr.transfer(rooms[roomNum].gameHost.playerBetAmount) */\n      swap1\n      dup2\n      iszero\n      mul\n      swap1\n      mload(0x40)\n      0x00\n      mload(0x40)\n      dup1\n      dup4\n      sub\n      dup2\n      dup6\n      dup9\n      dup9\n      call\n      swap4\n      pop\n      pop\n      pop\n      pop\n      iszero\n      dup1\n      iszero\n      tag_123\n      jumpi\n      returndatasize\n      0x00\n      dup1\n      returndatacopy\n      revert(0x00, returndatasize)\n    tag_123:\n      pop\n        /* \"RPC.sol\":6711:6716  rooms */\n      0x00\n        /* \"RPC.sol\":6711:6725  rooms[roomNum] */\n      dup1\n        /* \"RPC.sol\":6717:6724  roomNum */\n      dup5\n        /* \"RPC.sol\":6711:6725  rooms[roomNum] */\n      dup2\n      mstore\n      0x20\n      add\n      swap1\n      dup2\n      mstore\n      0x20\n      add\n      0x00\n      keccak256\n        /* \"RPC.sol\":6711:6740  rooms[roomNum].gameChallenger */\n      0x04\n      add\n        /* \"RPC.sol\":6711:6745  rooms[roomNum].gameChallenger.addr */\n      0x00\n      add\n      0x00\n      swap1\n      sload\n      swap1\n      0x0100\n      exp\n      swap1\n      div\n      0xffffffffffffffffffffffffffffffffffffffff\n      and\n        /* \"RPC.sol\":6711:6754  rooms[roomNum].gameChallenger.addr.transfer */\n      0xffffffffffffffffffffffffffffffffffffffff\n      and\n        /* \"RPC.sol\":6711:6801  rooms[roomNum].gameChallenger.addr.transfer(rooms[roomNum].gameChallenger.playerBetAmount) */\n      0x08fc\n        /* \"RPC.sol\":6755:6760  rooms */\n      0x00\n        /* \"RPC.sol\":6755:6769  rooms[roomNum] */\n      dup1\n        /* \"RPC.sol\":6761:6768  roomNum */\n      dup7\n        /* \"RPC.sol\":6755:6769  rooms[roomNum] */\n      dup2\n      mstore\n      0x20\n      add\n      swap1\n      dup2\n      mstore\n      0x20\n      add\n      0x00\n      keccak256\n        /* \"RPC.sol\":6755:6784  rooms[roomNum].gameChallenger */\n      0x04\n      add\n        /* \"RPC.sol\":6755:6800  rooms[roomNum].gameChallenger.playerBetAmount */\n      0x01\n      add\n      sload\n        /* \"RPC.sol\":6711:6801  rooms[roomNum].gameChallenger.addr.transfer(rooms[roomNum].gameChallenger.playerBetAmount) */\n      swap1\n      dup2\n      iszero\n      mul\n      swap1\n      mload(0x40)\n      0x00\n      mload(0x40)\n      dup1\n      dup4\n      sub\n      dup2\n      dup6\n      dup9\n      dup9\n      call\n      swap4\n      pop\n      pop\n      pop\n      pop\n      iszero\n      dup1\n      iszero\n      tag_125\n      jumpi\n      returndatasize\n      0x00\n      dup1\n      returndatacopy\n      revert(0x00, returndatasize)\n    tag_125:\n      pop\n        /* \"RPC.sol\":6272:6867  if (rooms[roomNum].gameChallenger.playerState == ePlayerState.STATE_WIN)\r... */\n    tag_121:\n        /* \"RPC.sol\":6014:6867  if(rooms[roomNum].gameHost.playerState == ePlayerState.STATE_WIN)\r... */\n    tag_113:\n        /* \"RPC.sol\":5489:6878  if(rooms[roomNum].gameHost.playerState == ePlayerState.STATE_TIE && rooms[roomNum].gameChallenger.playerState == ePlayerState.STATE_TIE)\r... */\n    tag_105:\n        /* \"RPC.sol\":5405:6885  function payout(uint roomNum) public payable isPlayer(roomNum,msg.sender){\r... */\n      pop\n      pop\n      pop\n      jump\t// out\n        /* \"RPC.sol\":3740:4996  function compareHands(uint roomNum) private{\r... */\n    tag_86:\n        /* \"RPC.sol\":3794:3812  uint8 gameHostHand */\n      0x00\n        /* \"RPC.sol\":3821:3826  rooms */\n      dup1\n        /* \"RPC.sol\":3821:3835  rooms[roomNum] */\n      0x00\n        /* \"RPC.sol\":3827:3834  roomNum */\n      dup4\n        /* \"RPC.sol\":3821:3835  rooms[roomNum] */\n      dup2\n      mstore\n      0x20\n      add\n      swap1\n      dup2\n      mstore\n      0x20\n      add\n      0x00\n      keccak256\n        /* \"RPC.sol\":3821:3844  rooms[roomNum].gameHost */\n      0x00\n      add\n        /* \"RPC.sol\":3821:3849  rooms[roomNum].gameHost.hand */\n      0x02\n      add\n      0x00\n      swap1\n      sload\n      swap1\n      0x0100\n      exp\n      swap1\n      div\n      0xff\n      and\n        /* \"RPC.sol\":3815:3850  uint8(rooms[roomNum].gameHost.hand) */\n      0x02\n      dup2\n      gt\n      iszero\n      tag_127\n      jumpi\n      tag_128\n      tag_22\n      jump\t// in\n    tag_128:\n    tag_127:\n        /* \"RPC.sol\":3794:3850  uint8 gameHostHand = uint8(rooms[roomNum].gameHost.hand) */\n      swap1\n      pop\n        /* \"RPC.sol\":3875:3899  uint8 gameChallengerHand */\n      0x00\n        /* \"RPC.sol\":3908:3913  rooms */\n      dup1\n        /* \"RPC.sol\":3908:3922  rooms[roomNum] */\n      0x00\n        /* \"RPC.sol\":3914:3921  roomNum */\n      dup5\n        /* \"RPC.sol\":3908:3922  rooms[roomNum] */\n      dup2\n      mstore\n      0x20\n      add\n      swap1\n      dup2\n      mstore\n      0x20\n      add\n      0x00\n      keccak256\n        /* \"RPC.sol\":3908:3937  rooms[roomNum].gameChallenger */\n      0x04\n      add\n        /* \"RPC.sol\":3908:3942  rooms[roomNum].gameChallenger.hand */\n      0x02\n      add\n      0x00\n      swap1\n      sload\n      swap1\n      0x0100\n      exp\n      swap1\n      div\n      0xff\n      and\n        /* \"RPC.sol\":3902:3943  uint8(rooms[roomNum].gameChallenger.hand) */\n      0x02\n      dup2\n      gt\n      iszero\n      tag_129\n      jumpi\n      tag_130\n      tag_22\n      jump\t// in\n    tag_130:\n    tag_129:\n        /* \"RPC.sol\":3875:3943  uint8 gameChallengerHand = uint8(rooms[roomNum].gameChallenger.hand) */\n      swap1\n      pop\n        /* \"RPC.sol\":4007:4031  eGameState.STATE_STARTED */\n      0x01\n        /* \"RPC.sol\":3980:3985  rooms */\n      0x00\n        /* \"RPC.sol\":3980:3994  rooms[roomNum] */\n      dup1\n        /* \"RPC.sol\":3986:3993  roomNum */\n      dup6\n        /* \"RPC.sol\":3980:3994  rooms[roomNum] */\n      dup2\n      mstore\n      0x20\n      add\n      swap1\n      dup2\n      mstore\n      0x20\n      add\n      0x00\n      keccak256\n        /* \"RPC.sol\":3980:4004  rooms[roomNum].gameState */\n      0x03\n      add\n      0x00\n        /* \"RPC.sol\":3980:4031  rooms[roomNum].gameState = eGameState.STATE_STARTED */\n      0x0100\n      exp\n      dup2\n      sload\n      dup2\n      0xff\n      mul\n      not\n      and\n      swap1\n      dup4\n      0x03\n      dup2\n      gt\n      iszero\n      tag_131\n      jumpi\n      tag_132\n      tag_22\n      jump\t// in\n    tag_132:\n    tag_131:\n      mul\n      or\n      swap1\n      sstore\n      pop\n        /* \"RPC.sol\":4099:4111  gameHostHand */\n      dup2\n        /* \"RPC.sol\":4077:4111  gameChallengerHand == gameHostHand */\n      0xff\n      and\n        /* \"RPC.sol\":4077:4095  gameChallengerHand */\n      dup2\n        /* \"RPC.sol\":4077:4111  gameChallengerHand == gameHostHand */\n      0xff\n      and\n      eq\n        /* \"RPC.sol\":4074:4989  if(gameChallengerHand == gameHostHand){ // 비긴경우\r... */\n      iszero\n      tag_133\n      jumpi\n        /* \"RPC.sol\":4181:4203  ePlayerState.STATE_TIE */\n      0x02\n        /* \"RPC.sol\":4143:4148  rooms */\n      0x00\n        /* \"RPC.sol\":4143:4157  rooms[roomNum] */\n      dup1\n        /* \"RPC.sol\":4149:4156  roomNum */\n      dup6\n        /* \"RPC.sol\":4143:4157  rooms[roomNum] */\n      dup2\n      mstore\n      0x20\n      add\n      swap1\n      dup2\n      mstore\n      0x20\n      add\n      0x00\n      keccak256\n        /* \"RPC.sol\":4143:4166  rooms[roomNum].gameHost */\n      0x00\n      add\n        /* \"RPC.sol\":4143:4178  rooms[roomNum].gameHost.playerState */\n      0x02\n      add\n      0x01\n        /* \"RPC.sol\":4143:4203  rooms[roomNum].gameHost.playerState = ePlayerState.STATE_TIE */\n      0x0100\n      exp\n      dup2\n      sload\n      dup2\n      0xff\n      mul\n      not\n      and\n      swap1\n      dup4\n      0x03\n      dup2\n      gt\n      iszero\n      tag_134\n      jumpi\n      tag_135\n      tag_22\n      jump\t// in\n    tag_135:\n    tag_134:\n      mul\n      or\n      swap1\n      sstore\n      pop\n        /* \"RPC.sol\":4262:4284  ePlayerState.STATE_TIE */\n      0x02\n        /* \"RPC.sol\":4218:4223  rooms */\n      0x00\n        /* \"RPC.sol\":4218:4232  rooms[roomNum] */\n      dup1\n        /* \"RPC.sol\":4224:4231  roomNum */\n      dup6\n        /* \"RPC.sol\":4218:4232  rooms[roomNum] */\n      dup2\n      mstore\n      0x20\n      add\n      swap1\n      dup2\n      mstore\n      0x20\n      add\n      0x00\n      keccak256\n        /* \"RPC.sol\":4218:4247  rooms[roomNum].gameChallenger */\n      0x04\n      add\n        /* \"RPC.sol\":4218:4259  rooms[roomNum].gameChallenger.playerState */\n      0x02\n      add\n      0x01\n        /* \"RPC.sol\":4218:4284  rooms[roomNum].gameChallenger.playerState = ePlayerState.STATE_TIE */\n      0x0100\n      exp\n      dup2\n      sload\n      dup2\n      0xff\n      mul\n      not\n      and\n      swap1\n      dup4\n      0x03\n      dup2\n      gt\n      iszero\n      tag_136\n      jumpi\n      tag_137\n      tag_22\n      jump\t// in\n    tag_137:\n    tag_136:\n      mul\n      or\n      swap1\n      sstore\n      pop\n        /* \"RPC.sol\":4074:4989  if(gameChallengerHand == gameHostHand){ // 비긴경우\r... */\n      jump(tag_138)\n    tag_133:\n        /* \"RPC.sol\":4344:4356  gameHostHand */\n      dup2\n        /* \"RPC.sol\":4314:4356  (gameChallengerHand + 1)%3 == gameHostHand */\n      0xff\n      and\n        /* \"RPC.sol\":4339:4340  3 */\n      0x03\n        /* \"RPC.sol\":4336:4337  1 */\n      0x01\n        /* \"RPC.sol\":4315:4333  gameChallengerHand */\n      dup4\n        /* \"RPC.sol\":4315:4337  gameChallengerHand + 1 */\n      tag_139\n      swap2\n      swap1\n      tag_140\n      jump\t// in\n    tag_139:\n        /* \"RPC.sol\":4314:4340  (gameChallengerHand + 1)%3 */\n      tag_141\n      swap2\n      swap1\n      tag_142\n      jump\t// in\n    tag_141:\n        /* \"RPC.sol\":4314:4356  (gameChallengerHand + 1)%3 == gameHostHand */\n      0xff\n      and\n      eq\n        /* \"RPC.sol\":4311:4989  if((gameChallengerHand + 1)%3 == gameHostHand ){ // 이긴사람이 방장이다.\r... */\n      iszero\n      tag_143\n      jumpi\n        /* \"RPC.sol\":4444:4466  ePlayerState.STATE_WIN */\n      0x00\n        /* \"RPC.sol\":4406:4411  rooms */\n      dup1\n        /* \"RPC.sol\":4406:4420  rooms[roomNum] */\n      0x00\n        /* \"RPC.sol\":4412:4419  roomNum */\n      dup6\n        /* \"RPC.sol\":4406:4420  rooms[roomNum] */\n      dup2\n      mstore\n      0x20\n      add\n      swap1\n      dup2\n      mstore\n      0x20\n      add\n      0x00\n      keccak256\n        /* \"RPC.sol\":4406:4429  rooms[roomNum].gameHost */\n      0x00\n      add\n        /* \"RPC.sol\":4406:4441  rooms[roomNum].gameHost.playerState */\n      0x02\n      add\n      0x01\n        /* \"RPC.sol\":4406:4466  rooms[roomNum].gameHost.playerState = ePlayerState.STATE_WIN */\n      0x0100\n      exp\n      dup2\n      sload\n      dup2\n      0xff\n      mul\n      not\n      and\n      swap1\n      dup4\n      0x03\n      dup2\n      gt\n      iszero\n      tag_144\n      jumpi\n      tag_145\n      tag_22\n      jump\t// in\n    tag_145:\n    tag_144:\n      mul\n      or\n      swap1\n      sstore\n      pop\n        /* \"RPC.sol\":4525:4548  ePlayerState.STATE_LOSE */\n      0x01\n        /* \"RPC.sol\":4481:4486  rooms */\n      0x00\n        /* \"RPC.sol\":4481:4495  rooms[roomNum] */\n      dup1\n        /* \"RPC.sol\":4487:4494  roomNum */\n      dup6\n        /* \"RPC.sol\":4481:4495  rooms[roomNum] */\n      dup2\n      mstore\n      0x20\n      add\n      swap1\n      dup2\n      mstore\n      0x20\n      add\n      0x00\n      keccak256\n        /* \"RPC.sol\":4481:4510  rooms[roomNum].gameChallenger */\n      0x04\n      add\n        /* \"RPC.sol\":4481:4522  rooms[roomNum].gameChallenger.playerState */\n      0x02\n      add\n      0x01\n        /* \"RPC.sol\":4481:4548  rooms[roomNum].gameChallenger.playerState = ePlayerState.STATE_LOSE */\n      0x0100\n      exp\n      dup2\n      sload\n      dup2\n      0xff\n      mul\n      not\n      and\n      swap1\n      dup4\n      0x03\n      dup2\n      gt\n      iszero\n      tag_146\n      jumpi\n      tag_147\n      tag_22\n      jump\t// in\n    tag_147:\n    tag_146:\n      mul\n      or\n      swap1\n      sstore\n      pop\n        /* \"RPC.sol\":4311:4989  if((gameChallengerHand + 1)%3 == gameHostHand ){ // 이긴사람이 방장이다.\r... */\n      jump(tag_148)\n    tag_143:\n        /* \"RPC.sol\":4601:4619  gameChallengerHand */\n      dup1\n        /* \"RPC.sol\":4578:4619  (gameHostHand +1)%3 == gameChallengerHand */\n      0xff\n      and\n        /* \"RPC.sol\":4596:4597  3 */\n      0x03\n        /* \"RPC.sol\":4593:4594  1 */\n      0x01\n        /* \"RPC.sol\":4579:4591  gameHostHand */\n      dup5\n        /* \"RPC.sol\":4579:4594  gameHostHand +1 */\n      tag_149\n      swap2\n      swap1\n      tag_140\n      jump\t// in\n    tag_149:\n        /* \"RPC.sol\":4578:4597  (gameHostHand +1)%3 */\n      tag_150\n      swap2\n      swap1\n      tag_142\n      jump\t// in\n    tag_150:\n        /* \"RPC.sol\":4578:4619  (gameHostHand +1)%3 == gameChallengerHand */\n      0xff\n      and\n      eq\n        /* \"RPC.sol\":4575:4989  if((gameHostHand +1)%3 == gameChallengerHand ){ // 이긴사람이 도전자다\r... */\n      iszero\n      tag_151\n      jumpi\n        /* \"RPC.sol\":4706:4729  ePlayerState.STATE_LOSE */\n      0x01\n        /* \"RPC.sol\":4668:4673  rooms */\n      0x00\n        /* \"RPC.sol\":4668:4682  rooms[roomNum] */\n      dup1\n        /* \"RPC.sol\":4674:4681  roomNum */\n      dup6\n        /* \"RPC.sol\":4668:4682  rooms[roomNum] */\n      dup2\n      mstore\n      0x20\n      add\n      swap1\n      dup2\n      mstore\n      0x20\n      add\n      0x00\n      keccak256\n        /* \"RPC.sol\":4668:4691  rooms[roomNum].gameHost */\n      0x00\n      add\n        /* \"RPC.sol\":4668:4703  rooms[roomNum].gameHost.playerState */\n      0x02\n      add\n      0x01\n        /* \"RPC.sol\":4668:4729  rooms[roomNum].gameHost.playerState = ePlayerState.STATE_LOSE */\n      0x0100\n      exp\n      dup2\n      sload\n      dup2\n      0xff\n      mul\n      not\n      and\n      swap1\n      dup4\n      0x03\n      dup2\n      gt\n      iszero\n      tag_152\n      jumpi\n      tag_153\n      tag_22\n      jump\t// in\n    tag_153:\n    tag_152:\n      mul\n      or\n      swap1\n      sstore\n      pop\n        /* \"RPC.sol\":4788:4810  ePlayerState.STATE_WIN */\n      0x00\n        /* \"RPC.sol\":4744:4749  rooms */\n      dup1\n        /* \"RPC.sol\":4744:4758  rooms[roomNum] */\n      0x00\n        /* \"RPC.sol\":4750:4757  roomNum */\n      dup6\n        /* \"RPC.sol\":4744:4758  rooms[roomNum] */\n      dup2\n      mstore\n      0x20\n      add\n      swap1\n      dup2\n      mstore\n      0x20\n      add\n      0x00\n      keccak256\n        /* \"RPC.sol\":4744:4773  rooms[roomNum].gameChallenger */\n      0x04\n      add\n        /* \"RPC.sol\":4744:4785  rooms[roomNum].gameChallenger.playerState */\n      0x02\n      add\n      0x01\n        /* \"RPC.sol\":4744:4810  rooms[roomNum].gameChallenger.playerState = ePlayerState.STATE_WIN */\n      0x0100\n      exp\n      dup2\n      sload\n      dup2\n      0xff\n      mul\n      not\n      and\n      swap1\n      dup4\n      0x03\n      dup2\n      gt\n      iszero\n      tag_154\n      jumpi\n      tag_155\n      tag_22\n      jump\t// in\n    tag_155:\n    tag_154:\n      mul\n      or\n      swap1\n      sstore\n      pop\n        /* \"RPC.sol\":4575:4989  if((gameHostHand +1)%3 == gameChallengerHand ){ // 이긴사람이 도전자다\r... */\n      jump(tag_156)\n    tag_151:\n        /* \"RPC.sol\":4955:4977  eGameState.STATE_ERROR */\n      0x03\n        /* \"RPC.sol\":4928:4933  rooms */\n      0x00\n        /* \"RPC.sol\":4928:4942  rooms[roomNum] */\n      dup1\n        /* \"RPC.sol\":4934:4941  roomNum */\n      dup6\n        /* \"RPC.sol\":4928:4942  rooms[roomNum] */\n      dup2\n      mstore\n      0x20\n      add\n      swap1\n      dup2\n      mstore\n      0x20\n      add\n      0x00\n      keccak256\n        /* \"RPC.sol\":4928:4952  rooms[roomNum].gameState */\n      0x03\n      add\n      0x00\n        /* \"RPC.sol\":4928:4977  rooms[roomNum].gameState = eGameState.STATE_ERROR */\n      0x0100\n      exp\n      dup2\n      sload\n      dup2\n      0xff\n      mul\n      not\n      and\n      swap1\n      dup4\n      0x03\n      dup2\n      gt\n      iszero\n      tag_157\n      jumpi\n      tag_158\n      tag_22\n      jump\t// in\n    tag_158:\n    tag_157:\n      mul\n      or\n      swap1\n      sstore\n      pop\n        /* \"RPC.sol\":4575:4989  if((gameHostHand +1)%3 == gameChallengerHand ){ // 이긴사람이 도전자다\r... */\n    tag_156:\n        /* \"RPC.sol\":4311:4989  if((gameChallengerHand + 1)%3 == gameHostHand ){ // 이긴사람이 방장이다.\r... */\n    tag_148:\n        /* \"RPC.sol\":4074:4989  if(gameChallengerHand == gameHostHand){ // 비긴경우\r... */\n    tag_138:\n        /* \"RPC.sol\":3783:4996  {\r... */\n      pop\n      pop\n        /* \"RPC.sol\":3740:4996  function compareHands(uint roomNum) private{\r... */\n      pop\n      jump\t// out\n        /* \"#utility.yul\":7:160   */\n    tag_160:\n        /* \"#utility.yul\":60:65   */\n      0x00\n        /* \"#utility.yul\":98:104   */\n      dup2\n        /* \"#utility.yul\":85:105   */\n      calldataload\n        /* \"#utility.yul\":76:105   */\n      swap1\n      pop\n        /* \"#utility.yul\":114:154   */\n      tag_162\n        /* \"#utility.yul\":148:153   */\n      dup2\n        /* \"#utility.yul\":114:154   */\n      tag_163\n      jump\t// in\n    tag_162:\n        /* \"#utility.yul\":7:160   */\n      swap3\n      swap2\n      pop\n      pop\n      jump\t// out\n        /* \"#utility.yul\":166:305   */\n    tag_164:\n        /* \"#utility.yul\":212:217   */\n      0x00\n        /* \"#utility.yul\":250:256   */\n      dup2\n        /* \"#utility.yul\":237:257   */\n      calldataload\n        /* \"#utility.yul\":228:257   */\n      swap1\n      pop\n        /* \"#utility.yul\":266:299   */\n      tag_166\n        /* \"#utility.yul\":293:298   */\n      dup2\n        /* \"#utility.yul\":266:299   */\n      tag_167\n      jump\t// in\n    tag_166:\n        /* \"#utility.yul\":166:305   */\n      swap3\n      swap2\n      pop\n      pop\n      jump\t// out\n        /* \"#utility.yul\":311:654   */\n    tag_7:\n        /* \"#utility.yul\":377:383   */\n      0x00\n        /* \"#utility.yul\":426:428   */\n      0x20\n        /* \"#utility.yul\":414:423   */\n      dup3\n        /* \"#utility.yul\":405:412   */\n      dup5\n        /* \"#utility.yul\":401:424   */\n      sub\n        /* \"#utility.yul\":397:429   */\n      slt\n        /* \"#utility.yul\":394:513   */\n      iszero\n      tag_169\n      jumpi\n        /* \"#utility.yul\":432:511   */\n      tag_170\n      tag_171\n      jump\t// in\n    tag_170:\n        /* \"#utility.yul\":394:513   */\n    tag_169:\n        /* \"#utility.yul\":552:553   */\n      0x00\n        /* \"#utility.yul\":577:637   */\n      tag_172\n        /* \"#utility.yul\":629:636   */\n      dup5\n        /* \"#utility.yul\":620:626   */\n      dup3\n        /* \"#utility.yul\":609:618   */\n      dup6\n        /* \"#utility.yul\":605:627   */\n      add\n        /* \"#utility.yul\":577:637   */\n      tag_160\n      jump\t// in\n    tag_172:\n        /* \"#utility.yul\":567:637   */\n      swap2\n      pop\n        /* \"#utility.yul\":523:647   */\n      pop\n        /* \"#utility.yul\":311:654   */\n      swap3\n      swap2\n      pop\n      pop\n      jump\t// out\n        /* \"#utility.yul\":660:989   */\n    tag_17:\n        /* \"#utility.yul\":719:725   */\n      0x00\n        /* \"#utility.yul\":768:770   */\n      0x20\n        /* \"#utility.yul\":756:765   */\n      dup3\n        /* \"#utility.yul\":747:754   */\n      dup5\n        /* \"#utility.yul\":743:766   */\n      sub\n        /* \"#utility.yul\":739:771   */\n      slt\n        /* \"#utility.yul\":736:855   */\n      iszero\n      tag_174\n      jumpi\n        /* \"#utility.yul\":774:853   */\n      tag_175\n      tag_171\n      jump\t// in\n    tag_175:\n        /* \"#utility.yul\":736:855   */\n    tag_174:\n        /* \"#utility.yul\":894:895   */\n      0x00\n        /* \"#utility.yul\":919:972   */\n      tag_176\n        /* \"#utility.yul\":964:971   */\n      dup5\n        /* \"#utility.yul\":955:961   */\n      dup3\n        /* \"#utility.yul\":944:953   */\n      dup6\n        /* \"#utility.yul\":940:962   */\n      add\n        /* \"#utility.yul\":919:972   */\n      tag_164\n      jump\t// in\n    tag_176:\n        /* \"#utility.yul\":909:972   */\n      swap2\n      pop\n        /* \"#utility.yul\":865:982   */\n      pop\n        /* \"#utility.yul\":660:989   */\n      swap3\n      swap2\n      pop\n      pop\n      jump\t// out\n        /* \"#utility.yul\":995:1483   */\n    tag_13:\n        /* \"#utility.yul\":1070:1076   */\n      0x00\n        /* \"#utility.yul\":1078:1084   */\n      dup1\n        /* \"#utility.yul\":1127:1129   */\n      0x40\n        /* \"#utility.yul\":1115:1124   */\n      dup4\n        /* \"#utility.yul\":1106:1113   */\n      dup6\n        /* \"#utility.yul\":1102:1125   */\n      sub\n        /* \"#utility.yul\":1098:1130   */\n      slt\n        /* \"#utility.yul\":1095:1214   */\n      iszero\n      tag_178\n      jumpi\n        /* \"#utility.yul\":1133:1212   */\n      tag_179\n      tag_171\n      jump\t// in\n    tag_179:\n        /* \"#utility.yul\":1095:1214   */\n    tag_178:\n        /* \"#utility.yul\":1253:1254   */\n      0x00\n        /* \"#utility.yul\":1278:1331   */\n      tag_180\n        /* \"#utility.yul\":1323:1330   */\n      dup6\n        /* \"#utility.yul\":1314:1320   */\n      dup3\n        /* \"#utility.yul\":1303:1312   */\n      dup7\n        /* \"#utility.yul\":1299:1321   */\n      add\n        /* \"#utility.yul\":1278:1331   */\n      tag_164\n      jump\t// in\n    tag_180:\n        /* \"#utility.yul\":1268:1331   */\n      swap3\n      pop\n        /* \"#utility.yul\":1224:1341   */\n      pop\n        /* \"#utility.yul\":1380:1382   */\n      0x20\n        /* \"#utility.yul\":1406:1466   */\n      tag_181\n        /* \"#utility.yul\":1458:1465   */\n      dup6\n        /* \"#utility.yul\":1449:1455   */\n      dup3\n        /* \"#utility.yul\":1438:1447   */\n      dup7\n        /* \"#utility.yul\":1434:1456   */\n      add\n        /* \"#utility.yul\":1406:1466   */\n      tag_160\n      jump\t// in\n    tag_181:\n        /* \"#utility.yul\":1396:1466   */\n      swap2\n      pop\n        /* \"#utility.yul\":1351:1476   */\n      pop\n        /* \"#utility.yul\":995:1483   */\n      swap3\n      pop\n      swap3\n      swap1\n      pop\n      jump\t// out\n        /* \"#utility.yul\":1489:1607   */\n    tag_182:\n        /* \"#utility.yul\":1576:1600   */\n      tag_184\n        /* \"#utility.yul\":1594:1599   */\n      dup2\n        /* \"#utility.yul\":1576:1600   */\n      tag_185\n      jump\t// in\n    tag_184:\n        /* \"#utility.yul\":1571:1574   */\n      dup3\n        /* \"#utility.yul\":1564:1601   */\n      mstore\n        /* \"#utility.yul\":1489:1607   */\n      pop\n      pop\n      jump\t// out\n        /* \"#utility.yul\":1613:1835   */\n    tag_10:\n        /* \"#utility.yul\":1706:1710   */\n      0x00\n        /* \"#utility.yul\":1744:1746   */\n      0x20\n        /* \"#utility.yul\":1733:1742   */\n      dup3\n        /* \"#utility.yul\":1729:1747   */\n      add\n        /* \"#utility.yul\":1721:1747   */\n      swap1\n      pop\n        /* \"#utility.yul\":1757:1828   */\n      tag_187\n        /* \"#utility.yul\":1825:1826   */\n      0x00\n        /* \"#utility.yul\":1814:1823   */\n      dup4\n        /* \"#utility.yul\":1810:1827   */\n      add\n        /* \"#utility.yul\":1801:1807   */\n      dup5\n        /* \"#utility.yul\":1757:1828   */\n      tag_182\n      jump\t// in\n    tag_187:\n        /* \"#utility.yul\":1613:1835   */\n      swap3\n      swap2\n      pop\n      pop\n      jump\t// out\n        /* \"#utility.yul\":1922:2227   */\n    tag_58:\n        /* \"#utility.yul\":1962:1965   */\n      0x00\n        /* \"#utility.yul\":1981:2001   */\n      tag_191\n        /* \"#utility.yul\":1999:2000   */\n      dup3\n        /* \"#utility.yul\":1981:2001   */\n      tag_185\n      jump\t// in\n    tag_191:\n        /* \"#utility.yul\":1976:2001   */\n      swap2\n      pop\n        /* \"#utility.yul\":2015:2035   */\n      tag_192\n        /* \"#utility.yul\":2033:2034   */\n      dup4\n        /* \"#utility.yul\":2015:2035   */\n      tag_185\n      jump\t// in\n    tag_192:\n        /* \"#utility.yul\":2010:2035   */\n      swap3\n      pop\n        /* \"#utility.yul\":2169:2170   */\n      dup3\n        /* \"#utility.yul\":2101:2167   */\n      0xffffffffffffffffffffffffffffffffffffffffffffffffffffffffffffffff\n        /* \"#utility.yul\":2097:2171   */\n      sub\n        /* \"#utility.yul\":2094:2095   */\n      dup3\n        /* \"#utility.yul\":2091:2172   */\n      gt\n        /* \"#utility.yul\":2088:2195   */\n      iszero\n      tag_193\n      jumpi\n        /* \"#utility.yul\":2175:2193   */\n      tag_194\n      tag_195\n      jump\t// in\n    tag_194:\n        /* \"#utility.yul\":2088:2195   */\n    tag_193:\n        /* \"#utility.yul\":2219:2220   */\n      dup3\n        /* \"#utility.yul\":2216:2217   */\n      dup3\n        /* \"#utility.yul\":2212:2221   */\n      add\n        /* \"#utility.yul\":2205:2221   */\n      swap1\n      pop\n        /* \"#utility.yul\":1922:2227   */\n      swap3\n      swap2\n      pop\n      pop\n      jump\t// out\n        /* \"#utility.yul\":2233:2470   */\n    tag_140:\n        /* \"#utility.yul\":2271:2274   */\n      0x00\n        /* \"#utility.yul\":2290:2308   */\n      tag_197\n        /* \"#utility.yul\":2306:2307   */\n      dup3\n        /* \"#utility.yul\":2290:2308   */\n      tag_198\n      jump\t// in\n    tag_197:\n        /* \"#utility.yul\":2285:2308   */\n      swap2\n      pop\n        /* \"#utility.yul\":2322:2340   */\n      tag_199\n        /* \"#utility.yul\":2338:2339   */\n      dup4\n        /* \"#utility.yul\":2322:2340   */\n      tag_198\n      jump\t// in\n    tag_199:\n        /* \"#utility.yul\":2317:2340   */\n      swap3\n      pop\n        /* \"#utility.yul\":2412:2413   */\n      dup3\n        /* \"#utility.yul\":2406:2410   */\n      0xff\n        /* \"#utility.yul\":2402:2414   */\n      sub\n        /* \"#utility.yul\":2399:2400   */\n      dup3\n        /* \"#utility.yul\":2396:2415   */\n      gt\n        /* \"#utility.yul\":2393:2438   */\n      iszero\n      tag_200\n      jumpi\n        /* \"#utility.yul\":2418:2436   */\n      tag_201\n      tag_195\n      jump\t// in\n    tag_201:\n        /* \"#utility.yul\":2393:2438   */\n    tag_200:\n        /* \"#utility.yul\":2462:2463   */\n      dup3\n        /* \"#utility.yul\":2459:2460   */\n      dup3\n        /* \"#utility.yul\":2455:2464   */\n      add\n        /* \"#utility.yul\":2448:2464   */\n      swap1\n      pop\n        /* \"#utility.yul\":2233:2470   */\n      swap3\n      swap2\n      pop\n      pop\n      jump\t// out\n        /* \"#utility.yul\":2476:2553   */\n    tag_185:\n        /* \"#utility.yul\":2513:2520   */\n      0x00\n        /* \"#utility.yul\":2542:2547   */\n      dup2\n        /* \"#utility.yul\":2531:2547   */\n      swap1\n      pop\n        /* \"#utility.yul\":2476:2553   */\n      swap2\n      swap1\n      pop\n      jump\t// out\n        /* \"#utility.yul\":2559:2645   */\n    tag_198:\n        /* \"#utility.yul\":2594:2601   */\n      0x00\n        /* \"#utility.yul\":2634:2638   */\n      0xff\n        /* \"#utility.yul\":2627:2632   */\n      dup3\n        /* \"#utility.yul\":2623:2639   */\n      and\n        /* \"#utility.yul\":2612:2639   */\n      swap1\n      pop\n        /* \"#utility.yul\":2559:2645   */\n      swap2\n      swap1\n      pop\n      jump\t// out\n        /* \"#utility.yul\":2651:2821   */\n    tag_142:\n        /* \"#utility.yul\":2681:2682   */\n      0x00\n        /* \"#utility.yul\":2698:2716   */\n      tag_205\n        /* \"#utility.yul\":2714:2715   */\n      dup3\n        /* \"#utility.yul\":2698:2716   */\n      tag_198\n      jump\t// in\n    tag_205:\n        /* \"#utility.yul\":2693:2716   */\n      swap2\n      pop\n        /* \"#utility.yul\":2730:2748   */\n      tag_206\n        /* \"#utility.yul\":2746:2747   */\n      dup4\n        /* \"#utility.yul\":2730:2748   */\n      tag_198\n      jump\t// in\n    tag_206:\n        /* \"#utility.yul\":2725:2748   */\n      swap3\n      pop\n        /* \"#utility.yul\":2767:2768   */\n      dup3\n        /* \"#utility.yul\":2757:2792   */\n      tag_207\n      jumpi\n        /* \"#utility.yul\":2772:2790   */\n      tag_208\n      tag_209\n      jump\t// in\n    tag_208:\n        /* \"#utility.yul\":2757:2792   */\n    tag_207:\n        /* \"#utility.yul\":2813:2814   */\n      dup3\n        /* \"#utility.yul\":2810:2811   */\n      dup3\n        /* \"#utility.yul\":2806:2815   */\n      mod\n        /* \"#utility.yul\":2801:2815   */\n      swap1\n      pop\n        /* \"#utility.yul\":2651:2821   */\n      swap3\n      swap2\n      pop\n      pop\n      jump\t// out\n        /* \"#utility.yul\":2827:3007   */\n    tag_195:\n        /* \"#utility.yul\":2875:2952   */\n      0x4e487b7100000000000000000000000000000000000000000000000000000000\n        /* \"#utility.yul\":2872:2873   */\n      0x00\n        /* \"#utility.yul\":2865:2953   */\n      mstore\n        /* \"#utility.yul\":2972:2976   */\n      0x11\n        /* \"#utility.yul\":2969:2970   */\n      0x04\n        /* \"#utility.yul\":2962:2977   */\n      mstore\n        /* \"#utility.yul\":2996:3000   */\n      0x24\n        /* \"#utility.yul\":2993:2994   */\n      0x00\n        /* \"#utility.yul\":2986:3001   */\n      revert\n        /* \"#utility.yul\":3013:3193   */\n    tag_209:\n        /* \"#utility.yul\":3061:3138   */\n      0x4e487b7100000000000000000000000000000000000000000000000000000000\n        /* \"#utility.yul\":3058:3059   */\n      0x00\n        /* \"#utility.yul\":3051:3139   */\n      mstore\n        /* \"#utility.yul\":3158:3162   */\n      0x12\n        /* \"#utility.yul\":3155:3156   */\n      0x04\n        /* \"#utility.yul\":3148:3163   */\n      mstore\n        /* \"#utility.yul\":3182:3186   */\n      0x24\n        /* \"#utility.yul\":3179:3180   */\n      0x00\n        /* \"#utility.yul\":3172:3187   */\n      revert\n        /* \"#utility.yul\":3199:3379   */\n    tag_22:\n        /* \"#utility.yul\":3247:3324   */\n      0x4e487b7100000000000000000000000000000000000000000000000000000000\n        /* \"#utility.yul\":3244:3245   */\n      0x00\n        /* \"#utility.yul\":3237:3325   */\n      mstore\n        /* \"#utility.yul\":3344:3348   */\n      0x21\n        /* \"#utility.yul\":3341:3342   */\n      0x04\n        /* \"#utility.yul\":3334:3349   */\n      mstore\n        /* \"#utility.yul\":3368:3372   */\n      0x24\n        /* \"#utility.yul\":3365:3366   */\n      0x00\n        /* \"#utility.yul\":3358:3373   */\n      revert\n        /* \"#utility.yul\":3508:3625   */\n    tag_171:\n        /* \"#utility.yul\":3617:3618   */\n      0x00\n        /* \"#utility.yul\":3614:3615   */\n      dup1\n        /* \"#utility.yul\":3607:3619   */\n      revert\n        /* \"#utility.yul\":3631:3737   */\n    tag_163:\n        /* \"#utility.yul\":3711:3712   */\n      0x03\n        /* \"#utility.yul\":3704:3709   */\n      dup2\n        /* \"#utility.yul\":3701:3713   */\n      lt\n        /* \"#utility.yul\":3691:3731   */\n      tag_217\n      jumpi\n        /* \"#utility.yul\":3727:3728   */\n      0x00\n        /* \"#utility.yul\":3724:3725   */\n      dup1\n        /* \"#utility.yul\":3717:3729   */\n      revert\n        /* \"#utility.yul\":3691:3731   */\n    tag_217:\n        /* \"#utility.yul\":3631:3737   */\n      pop\n      jump\t// out\n        /* \"#utility.yul\":3743:3865   */\n    tag_167:\n        /* \"#utility.yul\":3816:3840   */\n      tag_219\n        /* \"#utility.yul\":3834:3839   */\n      dup2\n        /* \"#utility.yul\":3816:3840   */\n      tag_185\n      jump\t// in\n    tag_219:\n        /* \"#utility.yul\":3809:3814   */\n      dup2\n        /* \"#utility.yul\":3806:3841   */\n      eq\n        /* \"#utility.yul\":3796:3859   */\n      tag_220\n      jumpi\n        /* \"#utility.yul\":3855:3856   */\n      0x00\n        /* \"#utility.yul\":3852:3853   */\n      dup1\n        /* \"#utility.yul\":3845:3857   */\n      revert\n        /* \"#utility.yul\":3796:3859   */\n    tag_220:\n        /* \"#utility.yul\":3743:3865   */\n      pop\n      jump\t// out\n\n    auxdata: 0xa2646970667358221220610f4ccefd0efeefe6895e6141a7d72c43df53225978999a62e59fa4aff1162b64736f6c63430008070033\n}\n",
				"bytecode": {
					"linkReferences": {},
					"object": "60806040526000600155611162806100186000396000f3fe6080604052600436106100345760003560e01c80630f36f3b51461003957806379b1577614610069578063e115234314610085575b600080fd5b610053600480360381019061004e9190610eda565b6100a1565b6040516100609190610f83565b60405180910390f35b610083600480360381019061007e9190610f34565b610404565b005b61009f600480360381019061009a9190610f07565b6105ff565b005b600081600060028111156100b8576100b76110d1565b5b8160028111156100cb576100ca6110d1565b5b14806100fb5750600160028111156100e6576100e56110d1565b5b8160028111156100f9576100f86110d1565b5b145b806101295750600280811115610114576101136110d1565b5b816002811115610127576101266110d1565b5b145b61013257600080fd5b604051806080016040528060405180608001604052803373ffffffffffffffffffffffffffffffffffffffff16815260200134815260200186600281111561017d5761017c6110d1565b5b8152602001600380811115610195576101946110d1565b5b8152508152602001600060038111156101b1576101b06110d1565b5b815260200160405180608001604052803373ffffffffffffffffffffffffffffffffffffffff16815260200160008152602001600060028111156101f8576101f76110d1565b5b81526020016003808111156102105761020f6110d1565b5b815250815260200134815250600080600154815260200190815260200160002060008201518160000160008201518160000160006101000a81548173ffffffffffffffffffffffffffffffffffffffff021916908373ffffffffffffffffffffffffffffffffffffffff1602179055506020820151816001015560408201518160020160006101000a81548160ff021916908360028111156102b5576102b46110d1565b5b021790555060608201518160020160016101000a81548160ff021916908360038111156102e5576102e46110d1565b5b0217905550505060208201518160030160006101000a81548160ff02191690836003811115610317576103166110d1565b5b021790555060408201518160040160008201518160000160006101000a81548173ffffffffffffffffffffffffffffffffffffffff021916908373ffffffffffffffffffffffffffffffffffffffff1602179055506020820151816001015560408201518160020160006101000a81548160ff021916908360028111156103a1576103a06110d1565b5b021790555060608201518160020160016101000a81548160ff021916908360038111156103d1576103d06110d1565b5b02179055505050606082015181600701559050506001549150600180546103f89190610f9e565b60018190555050919050565b8060006002811115610419576104186110d1565b5b81600281111561042c5761042b6110d1565b5b148061045c575060016002811115610447576104466110d1565b5b81600281111561045a576104596110d1565b5b145b8061048a5750600280811115610475576104746110d1565b5b816002811115610488576104876110d1565b5b145b61049357600080fd5b60405180608001604052803373ffffffffffffffffffffffffffffffffffffffff1681526020013481526020018360028111156104d3576104d26110d1565b5b81526020016003808111156104eb576104ea6110d1565b5b81525060008085815260200190815260200160002060040160008201518160000160006101000a81548173ffffffffffffffffffffffffffffffffffffffff021916908373ffffffffffffffffffffffffffffffffffffffff1602179055506020820151816001015560408201518160020160006101000a81548160ff0219169083600281111561057f5761057e6110d1565b5b021790555060608201518160020160016101000a81548160ff021916908360038111156105af576105ae6110d1565b5b021790555090505034600080858152602001908152602001600020600701546105d89190610f9e565b600080858152602001908152602001600020600701819055506105fa83610bc5565b505050565b803360008083815260200190815260200160002060000160000160009054906101000a900473ffffffffffffffffffffffffffffffffffffffff1673ffffffffffffffffffffffffffffffffffffffff168173ffffffffffffffffffffffffffffffffffffffff1614806106d6575060008083815260200190815260200160002060040160000160009054906101000a900473ffffffffffffffffffffffffffffffffffffffff1673ffffffffffffffffffffffffffffffffffffffff168173ffffffffffffffffffffffffffffffffffffffff16145b6106df57600080fd5b600260038111156106f3576106f26110d1565b5b60008085815260200190815260200160002060000160020160019054906101000a900460ff16600381111561072b5761072a6110d1565b5b148015610781575060026003811115610747576107466110d1565b5b60008085815260200190815260200160002060040160020160019054906101000a900460ff16600381111561077f5761077e6110d1565b5b145b156108b95760008084815260200190815260200160002060000160000160009054906101000a900473ffffffffffffffffffffffffffffffffffffffff1673ffffffffffffffffffffffffffffffffffffffff166108fc600080868152602001908152602001600020600001600101549081150290604051600060405180830381858888f1935050505015801561081c573d6000803e3d6000fd5b5060008084815260200190815260200160002060040160000160009054906101000a900473ffffffffffffffffffffffffffffffffffffffff1673ffffffffffffffffffffffffffffffffffffffff166108fc600080868152602001908152602001600020600401600101549081150290604051600060405180830381858888f193505050501580156108b3573d6000803e3d6000fd5b50610bc0565b600060038111156108cd576108cc6110d1565b5b60008085815260200190815260200160002060000160020160019054906101000a900460ff166003811115610905576109046110d1565b5b14156109a45760008084815260200190815260200160002060000160000160009054906101000a900473ffffffffffffffffffffffffffffffffffffffff1673ffffffffffffffffffffffffffffffffffffffff166108fc600080868152602001908152602001600020600701549081150290604051600060405180830381858888f1935050505015801561099e573d6000803e3d6000fd5b50610bbf565b600060038111156109b8576109b76110d1565b5b60008085815260200190815260200160002060040160020160019054906101000a900460ff1660038111156109f0576109ef6110d1565b5b1415610a8f5760008084815260200190815260200160002060040160000160009054906101000a900473ffffffffffffffffffffffffffffffffffffffff1673ffffffffffffffffffffffffffffffffffffffff166108fc600080868152602001908152602001600020600701549081150290604051600060405180830381858888f19350505050158015610a89573d6000803e3d6000fd5b50610bbe565b60008084815260200190815260200160002060000160000160009054906101000a900473ffffffffffffffffffffffffffffffffffffffff1673ffffffffffffffffffffffffffffffffffffffff166108fc600080868152602001908152602001600020600001600101549081150290604051600060405180830381858888f19350505050158015610b25573d6000803e3d6000fd5b5060008084815260200190815260200160002060040160000160009054906101000a900473ffffffffffffffffffffffffffffffffffffffff1673ffffffffffffffffffffffffffffffffffffffff166108fc600080868152602001908152602001600020600401600101549081150290604051600060405180830381858888f19350505050158015610bbc573d6000803e3d6000fd5b505b5b5b505050565b600080600083815260200190815260200160002060000160020160009054906101000a900460ff166002811115610bff57610bfe6110d1565b5b9050600080600084815260200190815260200160002060040160020160009054906101000a900460ff166002811115610c3b57610c3a6110d1565b5b9050600160008085815260200190815260200160002060030160006101000a81548160ff02191690836003811115610c7657610c756110d1565b5b02179055508160ff168160ff161415610d1057600260008085815260200190815260200160002060000160020160016101000a81548160ff02191690836003811115610cc557610cc46110d1565b5b0217905550600260008085815260200190815260200160002060040160020160016101000a81548160ff02191690836003811115610d0657610d056110d1565b5b0217905550610eab565b8160ff166003600183610d239190610ff4565b610d2d9190611042565b60ff161415610dbd57600080600085815260200190815260200160002060000160020160016101000a81548160ff02191690836003811115610d7257610d716110d1565b5b0217905550600160008085815260200190815260200160002060040160020160016101000a81548160ff02191690836003811115610db357610db26110d1565b5b0217905550610eaa565b8060ff166003600184610dd09190610ff4565b610dda9190611042565b60ff161415610e6a57600160008085815260200190815260200160002060000160020160016101000a81548160ff02191690836003811115610e1f57610e1e6110d1565b5b0217905550600080600085815260200190815260200160002060040160020160016101000a81548160ff02191690836003811115610e6057610e5f6110d1565b5b0217905550610ea9565b600360008085815260200190815260200160002060030160006101000a81548160ff02191690836003811115610ea357610ea26110d1565b5b02179055505b5b5b505050565b600081359050610ebf81611105565b92915050565b600081359050610ed481611115565b92915050565b600060208284031215610ef057610eef611100565b5b6000610efe84828501610eb0565b91505092915050565b600060208284031215610f1d57610f1c611100565b5b6000610f2b84828501610ec5565b91505092915050565b60008060408385031215610f4b57610f4a611100565b5b6000610f5985828601610ec5565b9250506020610f6a85828601610eb0565b9150509250929050565b610f7d8161102b565b82525050565b6000602082019050610f986000830184610f74565b92915050565b6000610fa98261102b565b9150610fb48361102b565b9250827fffffffffffffffffffffffffffffffffffffffffffffffffffffffffffffffff03821115610fe957610fe8611073565b5b828201905092915050565b6000610fff82611035565b915061100a83611035565b92508260ff038211156110205761101f611073565b5b828201905092915050565b6000819050919050565b600060ff82169050919050565b600061104d82611035565b915061105883611035565b925082611068576110676110a2565b5b828206905092915050565b7f4e487b7100000000000000000000000000000000000000000000000000000000600052601160045260246000fd5b7f4e487b7100000000000000000000000000000000000000000000000000000000600052601260045260246000fd5b7f4e487b7100000000000000000000000000000000000000000000000000000000600052602160045260246000fd5b600080fd5b6003811061111257600080fd5b50565b61111e8161102b565b811461112957600080fd5b5056fea2646970667358221220610f4ccefd0efeefe6895e6141a7d72c43df53225978999a62e59fa4aff1162b64736f6c63430008070033",
					"opcodes": "PUSH1 0x80 PUSH1 0x40 MSTORE PUSH1 0x0 PUSH1 0x1 SSTORE PUSH2 0x1162 DUP1 PUSH2 0x18 PUSH1 0x0 CODECOPY PUSH1 0x0 RETURN INVALID PUSH1 0x80 PUSH1 0x40 MSTORE PUSH1 0x4 CALLDATASIZE LT PUSH2 0x34 JUMPI PUSH1 0x0 CALLDATALOAD PUSH1 0xE0 SHR DUP1 PUSH4 0xF36F3B5 EQ PUSH2 0x39 JUMPI DUP1 PUSH4 0x79B15776 EQ PUSH2 0x69 JUMPI DUP1 PUSH4 0xE1152343 EQ PUSH2 0x85 JUMPI JUMPDEST PUSH1 0x0 DUP1 REVERT JUMPDEST PUSH2 0x53 PUSH1 0x4 DUP1 CALLDATASIZE SUB DUP2 ADD SWAP1 PUSH2 0x4E SWAP2 SWAP1 PUSH2 0xEDA JUMP JUMPDEST PUSH2 0xA1 JUMP JUMPDEST PUSH1 0x40 MLOAD PUSH2 0x60 SWAP2 SWAP1 PUSH2 0xF83 JUMP JUMPDEST PUSH1 0x40 MLOAD DUP1 SWAP2 SUB SWAP1 RETURN JUMPDEST PUSH2 0x83 PUSH1 0x4 DUP1 CALLDATASIZE SUB DUP2 ADD SWAP1 PUSH2 0x7E SWAP2 SWAP1 PUSH2 0xF34 JUMP JUMPDEST PUSH2 0x404 JUMP JUMPDEST STOP JUMPDEST PUSH2 0x9F PUSH1 0x4 DUP1 CALLDATASIZE SUB DUP2 ADD SWAP1 PUSH2 0x9A SWAP2 SWAP1 PUSH2 0xF07 JUMP JUMPDEST PUSH2 0x5FF JUMP JUMPDEST STOP JUMPDEST PUSH1 0x0 DUP2 PUSH1 0x0 PUSH1 0x2 DUP2 GT ISZERO PUSH2 0xB8 JUMPI PUSH2 0xB7 PUSH2 0x10D1 JUMP JUMPDEST JUMPDEST DUP2 PUSH1 0x2 DUP2 GT ISZERO PUSH2 0xCB JUMPI PUSH2 0xCA PUSH2 0x10D1 JUMP JUMPDEST JUMPDEST EQ DUP1 PUSH2 0xFB JUMPI POP PUSH1 0x1 PUSH1 0x2 DUP2 GT ISZERO PUSH2 0xE6 JUMPI PUSH2 0xE5 PUSH2 0x10D1 JUMP JUMPDEST JUMPDEST DUP2 PUSH1 0x2 DUP2 GT ISZERO PUSH2 0xF9 JUMPI PUSH2 0xF8 PUSH2 0x10D1 JUMP JUMPDEST JUMPDEST EQ JUMPDEST DUP1 PUSH2 0x129 JUMPI POP PUSH1 0x2 DUP1 DUP2 GT ISZERO PUSH2 0x114 JUMPI PUSH2 0x113 PUSH2 0x10D1 JUMP JUMPDEST JUMPDEST DUP2 PUSH1 0x2 DUP2 GT ISZERO PUSH2 0x127 JUMPI PUSH2 0x126 PUSH2 0x10D1 JUMP JUMPDEST JUMPDEST EQ JUMPDEST PUSH2 0x132 JUMPI PUSH1 0x0 DUP1 REVERT JUMPDEST PUSH1 0x40 MLOAD DUP1 PUSH1 0x80 ADD PUSH1 0x40 MSTORE DUP1 PUSH1 0x40 MLOAD DUP1 PUSH1 0x80 ADD PUSH1 0x40 MSTORE DUP1 CALLER PUSH20 0xFFFFFFFFFFFFFFFFFFFFFFFFFFFFFFFFFFFFFFFF AND DUP2 MSTORE PUSH1 0x20 ADD CALLVALUE DUP2 MSTORE PUSH1 0x20 ADD DUP7 PUSH1 0x2 DUP2 GT ISZERO PUSH2 0x17D JUMPI PUSH2 0x17C PUSH2 0x10D1 JUMP JUMPDEST JUMPDEST DUP2 MSTORE PUSH1 0x20 ADD PUSH1 0x3 DUP1 DUP2 GT ISZERO PUSH2 0x195 JUMPI PUSH2 0x194 PUSH2 0x10D1 JUMP JUMPDEST JUMPDEST DUP2 MSTORE POP DUP2 MSTORE PUSH1 0x20 ADD PUSH1 0x0 PUSH1 0x3 DUP2 GT ISZERO PUSH2 0x1B1 JUMPI PUSH2 0x1B0 PUSH2 0x10D1 JUMP JUMPDEST JUMPDEST DUP2 MSTORE PUSH1 0x20 ADD PUSH1 0x40 MLOAD DUP1 PUSH1 0x80 ADD PUSH1 0x40 MSTORE DUP1 CALLER PUSH20 0xFFFFFFFFFFFFFFFFFFFFFFFFFFFFFFFFFFFFFFFF AND DUP2 MSTORE PUSH1 0x20 ADD PUSH1 0x0 DUP2 MSTORE PUSH1 0x20 ADD PUSH1 0x0 PUSH1 0x2 DUP2 GT ISZERO PUSH2 0x1F8 JUMPI PUSH2 0x1F7 PUSH2 0x10D1 JUMP JUMPDEST JUMPDEST DUP2 MSTORE PUSH1 0x20 ADD PUSH1 0x3 DUP1 DUP2 GT ISZERO PUSH2 0x210 JUMPI PUSH2 0x20F PUSH2 0x10D1 JUMP JUMPDEST JUMPDEST DUP2 MSTORE POP DUP2 MSTORE PUSH1 0x20 ADD CALLVALUE DUP2 MSTORE POP PUSH1 0x0 DUP1 PUSH1 0x1 SLOAD DUP2 MSTORE PUSH1 0x20 ADD SWAP1 DUP2 MSTORE PUSH1 0x20 ADD PUSH1 0x0 KECCAK256 PUSH1 0x0 DUP3 ADD MLOAD DUP2 PUSH1 0x0 ADD PUSH1 0x0 DUP3 ADD MLOAD DUP2 PUSH1 0x0 ADD PUSH1 0x0 PUSH2 0x100 EXP DUP2 SLOAD DUP2 PUSH20 0xFFFFFFFFFFFFFFFFFFFFFFFFFFFFFFFFFFFFFFFF MUL NOT AND SWAP1 DUP4 PUSH20 0xFFFFFFFFFFFFFFFFFFFFFFFFFFFFFFFFFFFFFFFF AND MUL OR SWAP1 SSTORE POP PUSH1 0x20 DUP3 ADD MLOAD DUP2 PUSH1 0x1 ADD SSTORE PUSH1 0x40 DUP3 ADD MLOAD DUP2 PUSH1 0x2 ADD PUSH1 0x0 PUSH2 0x100 EXP DUP2 SLOAD DUP2 PUSH1 0xFF MUL NOT AND SWAP1 DUP4 PUSH1 0x2 DUP2 GT ISZERO PUSH2 0x2B5 JUMPI PUSH2 0x2B4 PUSH2 0x10D1 JUMP JUMPDEST JUMPDEST MUL OR SWAP1 SSTORE POP PUSH1 0x60 DUP3 ADD MLOAD DUP2 PUSH1 0x2 ADD PUSH1 0x1 PUSH2 0x100 EXP DUP2 SLOAD DUP2 PUSH1 0xFF MUL NOT AND SWAP1 DUP4 PUSH1 0x3 DUP2 GT ISZERO PUSH2 0x2E5 JUMPI PUSH2 0x2E4 PUSH2 0x10D1 JUMP JUMPDEST JUMPDEST MUL OR SWAP1 SSTORE POP POP POP PUSH1 0x20 DUP3 ADD MLOAD DUP2 PUSH1 0x3 ADD PUSH1 0x0 PUSH2 0x100 EXP DUP2 SLOAD DUP2 PUSH1 0xFF MUL NOT AND SWAP1 DUP4 PUSH1 0x3 DUP2 GT ISZERO PUSH2 0x317 JUMPI PUSH2 0x316 PUSH2 0x10D1 JUMP JUMPDEST JUMPDEST MUL OR SWAP1 SSTORE POP PUSH1 0x40 DUP3 ADD MLOAD DUP2 PUSH1 0x4 ADD PUSH1 0x0 DUP3 ADD MLOAD DUP2 PUSH1 0x0 ADD PUSH1 0x0 PUSH2 0x100 EXP DUP2 SLOAD DUP2 PUSH20 0xFFFFFFFFFFFFFFFFFFFFFFFFFFFFFFFFFFFFFFFF MUL NOT AND SWAP1 DUP4 PUSH20 0xFFFFFFFFFFFFFFFFFFFFFFFFFFFFFFFFFFFFFFFF AND MUL OR SWAP1 SSTORE POP PUSH1 0x20 DUP3 ADD MLOAD DUP2 PUSH1 0x1 ADD SSTORE PUSH1 0x40 DUP3 ADD MLOAD DUP2 PUSH1 0x2 ADD PUSH1 0x0 PUSH2 0x100 EXP DUP2 SLOAD DUP2 PUSH1 0xFF MUL NOT AND SWAP1 DUP4 PUSH1 0x2 DUP2 GT ISZERO PUSH2 0x3A1 JUMPI PUSH2 0x3A0 PUSH2 0x10D1 JUMP JUMPDEST JUMPDEST MUL OR SWAP1 SSTORE POP PUSH1 0x60 DUP3 ADD MLOAD DUP2 PUSH1 0x2 ADD PUSH1 0x1 PUSH2 0x100 EXP DUP2 SLOAD DUP2 PUSH1 0xFF MUL NOT AND SWAP1 DUP4 PUSH1 0x3 DUP2 GT ISZERO PUSH2 0x3D1 JUMPI PUSH2 0x3D0 PUSH2 0x10D1 JUMP JUMPDEST JUMPDEST MUL OR SWAP1 SSTORE POP POP POP PUSH1 0x60 DUP3 ADD MLOAD DUP2 PUSH1 0x7 ADD SSTORE SWAP1 POP POP PUSH1 0x1 SLOAD SWAP2 POP PUSH1 0x1 DUP1 SLOAD PUSH2 0x3F8 SWAP2 SWAP1 PUSH2 0xF9E JUMP JUMPDEST PUSH1 0x1 DUP2 SWAP1 SSTORE POP POP SWAP2 SWAP1 POP JUMP JUMPDEST DUP1 PUSH1 0x0 PUSH1 0x2 DUP2 GT ISZERO PUSH2 0x419 JUMPI PUSH2 0x418 PUSH2 0x10D1 JUMP JUMPDEST JUMPDEST DUP2 PUSH1 0x2 DUP2 GT ISZERO PUSH2 0x42C JUMPI PUSH2 0x42B PUSH2 0x10D1 JUMP JUMPDEST JUMPDEST EQ DUP1 PUSH2 0x45C JUMPI POP PUSH1 0x1 PUSH1 0x2 DUP2 GT ISZERO PUSH2 0x447 JUMPI PUSH2 0x446 PUSH2 0x10D1 JUMP JUMPDEST JUMPDEST DUP2 PUSH1 0x2 DUP2 GT ISZERO PUSH2 0x45A JUMPI PUSH2 0x459 PUSH2 0x10D1 JUMP JUMPDEST JUMPDEST EQ JUMPDEST DUP1 PUSH2 0x48A JUMPI POP PUSH1 0x2 DUP1 DUP2 GT ISZERO PUSH2 0x475 JUMPI PUSH2 0x474 PUSH2 0x10D1 JUMP JUMPDEST JUMPDEST DUP2 PUSH1 0x2 DUP2 GT ISZERO PUSH2 0x488 JUMPI PUSH2 0x487 PUSH2 0x10D1 JUMP JUMPDEST JUMPDEST EQ JUMPDEST PUSH2 0x493 JUMPI PUSH1 0x0 DUP1 REVERT JUMPDEST PUSH1 0x40 MLOAD DUP1 PUSH1 0x80 ADD PUSH1 0x40 MSTORE DUP1 CALLER PUSH20 0xFFFFFFFFFFFFFFFFFFFFFFFFFFFFFFFFFFFFFFFF AND DUP2 MSTORE PUSH1 0x20 ADD CALLVALUE DUP2 MSTORE PUSH1 0x20 ADD DUP4 PUSH1 0x2 DUP2 GT ISZERO PUSH2 0x4D3 JUMPI PUSH2 0x4D2 PUSH2 0x10D1 JUMP JUMPDEST JUMPDEST DUP2 MSTORE PUSH1 0x20 ADD PUSH1 0x3 DUP1 DUP2 GT ISZERO PUSH2 0x4EB JUMPI PUSH2 0x4EA PUSH2 0x10D1 JUMP JUMPDEST JUMPDEST DUP2 MSTORE POP PUSH1 0x0 DUP1 DUP6 DUP2 MSTORE PUSH1 0x20 ADD SWAP1 DUP2 MSTORE PUSH1 0x20 ADD PUSH1 0x0 KECCAK256 PUSH1 0x4 ADD PUSH1 0x0 DUP3 ADD MLOAD DUP2 PUSH1 0x0 ADD PUSH1 0x0 PUSH2 0x100 EXP DUP2 SLOAD DUP2 PUSH20 0xFFFFFFFFFFFFFFFFFFFFFFFFFFFFFFFFFFFFFFFF MUL NOT AND SWAP1 DUP4 PUSH20 0xFFFFFFFFFFFFFFFFFFFFFFFFFFFFFFFFFFFFFFFF AND MUL OR SWAP1 SSTORE POP PUSH1 0x20 DUP3 ADD MLOAD DUP2 PUSH1 0x1 ADD SSTORE PUSH1 0x40 DUP3 ADD MLOAD DUP2 PUSH1 0x2 ADD PUSH1 0x0 PUSH2 0x100 EXP DUP2 SLOAD DUP2 PUSH1 0xFF MUL NOT AND SWAP1 DUP4 PUSH1 0x2 DUP2 GT ISZERO PUSH2 0x57F JUMPI PUSH2 0x57E PUSH2 0x10D1 JUMP JUMPDEST JUMPDEST MUL OR SWAP1 SSTORE POP PUSH1 0x60 DUP3 ADD MLOAD DUP2 PUSH1 0x2 ADD PUSH1 0x1 PUSH2 0x100 EXP DUP2 SLOAD DUP2 PUSH1 0xFF MUL NOT AND SWAP1 DUP4 PUSH1 0x3 DUP2 GT ISZERO PUSH2 0x5AF JUMPI PUSH2 0x5AE PUSH2 0x10D1 JUMP JUMPDEST JUMPDEST MUL OR SWAP1 SSTORE POP SWAP1 POP POP CALLVALUE PUSH1 0x0 DUP1 DUP6 DUP2 MSTORE PUSH1 0x20 ADD SWAP1 DUP2 MSTORE PUSH1 0x20 ADD PUSH1 0x0 KECCAK256 PUSH1 0x7 ADD SLOAD PUSH2 0x5D8 SWAP2 SWAP1 PUSH2 0xF9E JUMP JUMPDEST PUSH1 0x0 DUP1 DUP6 DUP2 MSTORE PUSH1 0x20 ADD SWAP1 DUP2 MSTORE PUSH1 0x20 ADD PUSH1 0x0 KECCAK256 PUSH1 0x7 ADD DUP2 SWAP1 SSTORE POP PUSH2 0x5FA DUP4 PUSH2 0xBC5 JUMP JUMPDEST POP POP POP JUMP JUMPDEST DUP1 CALLER PUSH1 0x0 DUP1 DUP4 DUP2 MSTORE PUSH1 0x20 ADD SWAP1 DUP2 MSTORE PUSH1 0x20 ADD PUSH1 0x0 KECCAK256 PUSH1 0x0 ADD PUSH1 0x0 ADD PUSH1 0x0 SWAP1 SLOAD SWAP1 PUSH2 0x100 EXP SWAP1 DIV PUSH20 0xFFFFFFFFFFFFFFFFFFFFFFFFFFFFFFFFFFFFFFFF AND PUSH20 0xFFFFFFFFFFFFFFFFFFFFFFFFFFFFFFFFFFFFFFFF AND DUP2 PUSH20 0xFFFFFFFFFFFFFFFFFFFFFFFFFFFFFFFFFFFFFFFF AND EQ DUP1 PUSH2 0x6D6 JUMPI POP PUSH1 0x0 DUP1 DUP4 DUP2 MSTORE PUSH1 0x20 ADD SWAP1 DUP2 MSTORE PUSH1 0x20 ADD PUSH1 0x0 KECCAK256 PUSH1 0x4 ADD PUSH1 0x0 ADD PUSH1 0x0 SWAP1 SLOAD SWAP1 PUSH2 0x100 EXP SWAP1 DIV PUSH20 0xFFFFFFFFFFFFFFFFFFFFFFFFFFFFFFFFFFFFFFFF AND PUSH20 0xFFFFFFFFFFFFFFFFFFFFFFFFFFFFFFFFFFFFFFFF AND DUP2 PUSH20 0xFFFFFFFFFFFFFFFFFFFFFFFFFFFFFFFFFFFFFFFF AND EQ JUMPDEST PUSH2 0x6DF JUMPI PUSH1 0x0 DUP1 REVERT JUMPDEST PUSH1 0x2 PUSH1 0x3 DUP2 GT ISZERO PUSH2 0x6F3 JUMPI PUSH2 0x6F2 PUSH2 0x10D1 JUMP JUMPDEST JUMPDEST PUSH1 0x0 DUP1 DUP6 DUP2 MSTORE PUSH1 0x20 ADD SWAP1 DUP2 MSTORE PUSH1 0x20 ADD PUSH1 0x0 KECCAK256 PUSH1 0x0 ADD PUSH1 0x2 ADD PUSH1 0x1 SWAP1 SLOAD SWAP1 PUSH2 0x100 EXP SWAP1 DIV PUSH1 0xFF AND PUSH1 0x3 DUP2 GT ISZERO PUSH2 0x72B JUMPI PUSH2 0x72A PUSH2 0x10D1 JUMP JUMPDEST JUMPDEST EQ DUP1 ISZERO PUSH2 0x781 JUMPI POP PUSH1 0x2 PUSH1 0x3 DUP2 GT ISZERO PUSH2 0x747 JUMPI PUSH2 0x746 PUSH2 0x10D1 JUMP JUMPDEST JUMPDEST PUSH1 0x0 DUP1 DUP6 DUP2 MSTORE PUSH1 0x20 ADD SWAP1 DUP2 MSTORE PUSH1 0x20 ADD PUSH1 0x0 KECCAK256 PUSH1 0x4 ADD PUSH1 0x2 ADD PUSH1 0x1 SWAP1 SLOAD SWAP1 PUSH2 0x100 EXP SWAP1 DIV PUSH1 0xFF AND PUSH1 0x3 DUP2 GT ISZERO PUSH2 0x77F JUMPI PUSH2 0x77E PUSH2 0x10D1 JUMP JUMPDEST JUMPDEST EQ JUMPDEST ISZERO PUSH2 0x8B9 JUMPI PUSH1 0x0 DUP1 DUP5 DUP2 MSTORE PUSH1 0x20 ADD SWAP1 DUP2 MSTORE PUSH1 0x20 ADD PUSH1 0x0 KECCAK256 PUSH1 0x0 ADD PUSH1 0x0 ADD PUSH1 0x0 SWAP1 SLOAD SWAP1 PUSH2 0x100 EXP SWAP1 DIV PUSH20 0xFFFFFFFFFFFFFFFFFFFFFFFFFFFFFFFFFFFFFFFF AND PUSH20 0xFFFFFFFFFFFFFFFFFFFFFFFFFFFFFFFFFFFFFFFF AND PUSH2 0x8FC PUSH1 0x0 DUP1 DUP7 DUP2 MSTORE PUSH1 0x20 ADD SWAP1 DUP2 MSTORE PUSH1 0x20 ADD PUSH1 0x0 KECCAK256 PUSH1 0x0 ADD PUSH1 0x1 ADD SLOAD SWAP1 DUP2 ISZERO MUL SWAP1 PUSH1 0x40 MLOAD PUSH1 0x0 PUSH1 0x40 MLOAD DUP1 DUP4 SUB DUP2 DUP6 DUP9 DUP9 CALL SWAP4 POP POP POP POP ISZERO DUP1 ISZERO PUSH2 0x81C JUMPI RETURNDATASIZE PUSH1 0x0 DUP1 RETURNDATACOPY RETURNDATASIZE PUSH1 0x0 REVERT JUMPDEST POP PUSH1 0x0 DUP1 DUP5 DUP2 MSTORE PUSH1 0x20 ADD SWAP1 DUP2 MSTORE PUSH1 0x20 ADD PUSH1 0x0 KECCAK256 PUSH1 0x4 ADD PUSH1 0x0 ADD PUSH1 0x0 SWAP1 SLOAD SWAP1 PUSH2 0x100 EXP SWAP1 DIV PUSH20 0xFFFFFFFFFFFFFFFFFFFFFFFFFFFFFFFFFFFFFFFF AND PUSH20 0xFFFFFFFFFFFFFFFFFFFFFFFFFFFFFFFFFFFFFFFF AND PUSH2 0x8FC PUSH1 0x0 DUP1 DUP7 DUP2 MSTORE PUSH1 0x20 ADD SWAP1 DUP2 MSTORE PUSH1 0x20 ADD PUSH1 0x0 KECCAK256 PUSH1 0x4 ADD PUSH1 0x1 ADD SLOAD SWAP1 DUP2 ISZERO MUL SWAP1 PUSH1 0x40 MLOAD PUSH1 0x0 PUSH1 0x40 MLOAD DUP1 DUP4 SUB DUP2 DUP6 DUP9 DUP9 CALL SWAP4 POP POP POP POP ISZERO DUP1 ISZERO PUSH2 0x8B3 JUMPI RETURNDATASIZE PUSH1 0x0 DUP1 RETURNDATACOPY RETURNDATASIZE PUSH1 0x0 REVERT JUMPDEST POP PUSH2 0xBC0 JUMP JUMPDEST PUSH1 0x0 PUSH1 0x3 DUP2 GT ISZERO PUSH2 0x8CD JUMPI PUSH2 0x8CC PUSH2 0x10D1 JUMP JUMPDEST JUMPDEST PUSH1 0x0 DUP1 DUP6 DUP2 MSTORE PUSH1 0x20 ADD SWAP1 DUP2 MSTORE PUSH1 0x20 ADD PUSH1 0x0 KECCAK256 PUSH1 0x0 ADD PUSH1 0x2 ADD PUSH1 0x1 SWAP1 SLOAD SWAP1 PUSH2 0x100 EXP SWAP1 DIV PUSH1 0xFF AND PUSH1 0x3 DUP2 GT ISZERO PUSH2 0x905 JUMPI PUSH2 0x904 PUSH2 0x10D1 JUMP JUMPDEST JUMPDEST EQ ISZERO PUSH2 0x9A4 JUMPI PUSH1 0x0 DUP1 DUP5 DUP2 MSTORE PUSH1 0x20 ADD SWAP1 DUP2 MSTORE PUSH1 0x20 ADD PUSH1 0x0 KECCAK256 PUSH1 0x0 ADD PUSH1 0x0 ADD PUSH1 0x0 SWAP1 SLOAD SWAP1 PUSH2 0x100 EXP SWAP1 DIV PUSH20 0xFFFFFFFFFFFFFFFFFFFFFFFFFFFFFFFFFFFFFFFF AND PUSH20 0xFFFFFFFFFFFFFFFFFFFFFFFFFFFFFFFFFFFFFFFF AND PUSH2 0x8FC PUSH1 0x0 DUP1 DUP7 DUP2 MSTORE PUSH1 0x20 ADD SWAP1 DUP2 MSTORE PUSH1 0x20 ADD PUSH1 0x0 KECCAK256 PUSH1 0x7 ADD SLOAD SWAP1 DUP2 ISZERO MUL SWAP1 PUSH1 0x40 MLOAD PUSH1 0x0 PUSH1 0x40 MLOAD DUP1 DUP4 SUB DUP2 DUP6 DUP9 DUP9 CALL SWAP4 POP POP POP POP ISZERO DUP1 ISZERO PUSH2 0x99E JUMPI RETURNDATASIZE PUSH1 0x0 DUP1 RETURNDATACOPY RETURNDATASIZE PUSH1 0x0 REVERT JUMPDEST POP PUSH2 0xBBF JUMP JUMPDEST PUSH1 0x0 PUSH1 0x3 DUP2 GT ISZERO PUSH2 0x9B8 JUMPI PUSH2 0x9B7 PUSH2 0x10D1 JUMP JUMPDEST JUMPDEST PUSH1 0x0 DUP1 DUP6 DUP2 MSTORE PUSH1 0x20 ADD SWAP1 DUP2 MSTORE PUSH1 0x20 ADD PUSH1 0x0 KECCAK256 PUSH1 0x4 ADD PUSH1 0x2 ADD PUSH1 0x1 SWAP1 SLOAD SWAP1 PUSH2 0x100 EXP SWAP1 DIV PUSH1 0xFF AND PUSH1 0x3 DUP2 GT ISZERO PUSH2 0x9F0 JUMPI PUSH2 0x9EF PUSH2 0x10D1 JUMP JUMPDEST JUMPDEST EQ ISZERO PUSH2 0xA8F JUMPI PUSH1 0x0 DUP1 DUP5 DUP2 MSTORE PUSH1 0x20 ADD SWAP1 DUP2 MSTORE PUSH1 0x20 ADD PUSH1 0x0 KECCAK256 PUSH1 0x4 ADD PUSH1 0x0 ADD PUSH1 0x0 SWAP1 SLOAD SWAP1 PUSH2 0x100 EXP SWAP1 DIV PUSH20 0xFFFFFFFFFFFFFFFFFFFFFFFFFFFFFFFFFFFFFFFF AND PUSH20 0xFFFFFFFFFFFFFFFFFFFFFFFFFFFFFFFFFFFFFFFF AND PUSH2 0x8FC PUSH1 0x0 DUP1 DUP7 DUP2 MSTORE PUSH1 0x20 ADD SWAP1 DUP2 MSTORE PUSH1 0x20 ADD PUSH1 0x0 KECCAK256 PUSH1 0x7 ADD SLOAD SWAP1 DUP2 ISZERO MUL SWAP1 PUSH1 0x40 MLOAD PUSH1 0x0 PUSH1 0x40 MLOAD DUP1 DUP4 SUB DUP2 DUP6 DUP9 DUP9 CALL SWAP4 POP POP POP POP ISZERO DUP1 ISZERO PUSH2 0xA89 JUMPI RETURNDATASIZE PUSH1 0x0 DUP1 RETURNDATACOPY RETURNDATASIZE PUSH1 0x0 REVERT JUMPDEST POP PUSH2 0xBBE JUMP JUMPDEST PUSH1 0x0 DUP1 DUP5 DUP2 MSTORE PUSH1 0x20 ADD SWAP1 DUP2 MSTORE PUSH1 0x20 ADD PUSH1 0x0 KECCAK256 PUSH1 0x0 ADD PUSH1 0x0 ADD PUSH1 0x0 SWAP1 SLOAD SWAP1 PUSH2 0x100 EXP SWAP1 DIV PUSH20 0xFFFFFFFFFFFFFFFFFFFFFFFFFFFFFFFFFFFFFFFF AND PUSH20 0xFFFFFFFFFFFFFFFFFFFFFFFFFFFFFFFFFFFFFFFF AND PUSH2 0x8FC PUSH1 0x0 DUP1 DUP7 DUP2 MSTORE PUSH1 0x20 ADD SWAP1 DUP2 MSTORE PUSH1 0x20 ADD PUSH1 0x0 KECCAK256 PUSH1 0x0 ADD PUSH1 0x1 ADD SLOAD SWAP1 DUP2 ISZERO MUL SWAP1 PUSH1 0x40 MLOAD PUSH1 0x0 PUSH1 0x40 MLOAD DUP1 DUP4 SUB DUP2 DUP6 DUP9 DUP9 CALL SWAP4 POP POP POP POP ISZERO DUP1 ISZERO PUSH2 0xB25 JUMPI RETURNDATASIZE PUSH1 0x0 DUP1 RETURNDATACOPY RETURNDATASIZE PUSH1 0x0 REVERT JUMPDEST POP PUSH1 0x0 DUP1 DUP5 DUP2 MSTORE PUSH1 0x20 ADD SWAP1 DUP2 MSTORE PUSH1 0x20 ADD PUSH1 0x0 KECCAK256 PUSH1 0x4 ADD PUSH1 0x0 ADD PUSH1 0x0 SWAP1 SLOAD SWAP1 PUSH2 0x100 EXP SWAP1 DIV PUSH20 0xFFFFFFFFFFFFFFFFFFFFFFFFFFFFFFFFFFFFFFFF AND PUSH20 0xFFFFFFFFFFFFFFFFFFFFFFFFFFFFFFFFFFFFFFFF AND PUSH2 0x8FC PUSH1 0x0 DUP1 DUP7 DUP2 MSTORE PUSH1 0x20 ADD SWAP1 DUP2 MSTORE PUSH1 0x20 ADD PUSH1 0x0 KECCAK256 PUSH1 0x4 ADD PUSH1 0x1 ADD SLOAD SWAP1 DUP2 ISZERO MUL SWAP1 PUSH1 0x40 MLOAD PUSH1 0x0 PUSH1 0x40 MLOAD DUP1 DUP4 SUB DUP2 DUP6 DUP9 DUP9 CALL SWAP4 POP POP POP POP ISZERO DUP1 ISZERO PUSH2 0xBBC JUMPI RETURNDATASIZE PUSH1 0x0 DUP1 RETURNDATACOPY RETURNDATASIZE PUSH1 0x0 REVERT JUMPDEST POP JUMPDEST JUMPDEST JUMPDEST POP POP POP JUMP JUMPDEST PUSH1 0x0 DUP1 PUSH1 0x0 DUP4 DUP2 MSTORE PUSH1 0x20 ADD SWAP1 DUP2 MSTORE PUSH1 0x20 ADD PUSH1 0x0 KECCAK256 PUSH1 0x0 ADD PUSH1 0x2 ADD PUSH1 0x0 SWAP1 SLOAD SWAP1 PUSH2 0x100 EXP SWAP1 DIV PUSH1 0xFF AND PUSH1 0x2 DUP2 GT ISZERO PUSH2 0xBFF JUMPI PUSH2 0xBFE PUSH2 0x10D1 JUMP JUMPDEST JUMPDEST SWAP1 POP PUSH1 0x0 DUP1 PUSH1 0x0 DUP5 DUP2 MSTORE PUSH1 0x20 ADD SWAP1 DUP2 MSTORE PUSH1 0x20 ADD PUSH1 0x0 KECCAK256 PUSH1 0x4 ADD PUSH1 0x2 ADD PUSH1 0x0 SWAP1 SLOAD SWAP1 PUSH2 0x100 EXP SWAP1 DIV PUSH1 0xFF AND PUSH1 0x2 DUP2 GT ISZERO PUSH2 0xC3B JUMPI PUSH2 0xC3A PUSH2 0x10D1 JUMP JUMPDEST JUMPDEST SWAP1 POP PUSH1 0x1 PUSH1 0x0 DUP1 DUP6 DUP2 MSTORE PUSH1 0x20 ADD SWAP1 DUP2 MSTORE PUSH1 0x20 ADD PUSH1 0x0 KECCAK256 PUSH1 0x3 ADD PUSH1 0x0 PUSH2 0x100 EXP DUP2 SLOAD DUP2 PUSH1 0xFF MUL NOT AND SWAP1 DUP4 PUSH1 0x3 DUP2 GT ISZERO PUSH2 0xC76 JUMPI PUSH2 0xC75 PUSH2 0x10D1 JUMP JUMPDEST JUMPDEST MUL OR SWAP1 SSTORE POP DUP2 PUSH1 0xFF AND DUP2 PUSH1 0xFF AND EQ ISZERO PUSH2 0xD10 JUMPI PUSH1 0x2 PUSH1 0x0 DUP1 DUP6 DUP2 MSTORE PUSH1 0x20 ADD SWAP1 DUP2 MSTORE PUSH1 0x20 ADD PUSH1 0x0 KECCAK256 PUSH1 0x0 ADD PUSH1 0x2 ADD PUSH1 0x1 PUSH2 0x100 EXP DUP2 SLOAD DUP2 PUSH1 0xFF MUL NOT AND SWAP1 DUP4 PUSH1 0x3 DUP2 GT ISZERO PUSH2 0xCC5 JUMPI PUSH2 0xCC4 PUSH2 0x10D1 JUMP JUMPDEST JUMPDEST MUL OR SWAP1 SSTORE POP PUSH1 0x2 PUSH1 0x0 DUP1 DUP6 DUP2 MSTORE PUSH1 0x20 ADD SWAP1 DUP2 MSTORE PUSH1 0x20 ADD PUSH1 0x0 KECCAK256 PUSH1 0x4 ADD PUSH1 0x2 ADD PUSH1 0x1 PUSH2 0x100 EXP DUP2 SLOAD DUP2 PUSH1 0xFF MUL NOT AND SWAP1 DUP4 PUSH1 0x3 DUP2 GT ISZERO PUSH2 0xD06 JUMPI PUSH2 0xD05 PUSH2 0x10D1 JUMP JUMPDEST JUMPDEST MUL OR SWAP1 SSTORE POP PUSH2 0xEAB JUMP JUMPDEST DUP2 PUSH1 0xFF AND PUSH1 0x3 PUSH1 0x1 DUP4 PUSH2 0xD23 SWAP2 SWAP1 PUSH2 0xFF4 JUMP JUMPDEST PUSH2 0xD2D SWAP2 SWAP1 PUSH2 0x1042 JUMP JUMPDEST PUSH1 0xFF AND EQ ISZERO PUSH2 0xDBD JUMPI PUSH1 0x0 DUP1 PUSH1 0x0 DUP6 DUP2 MSTORE PUSH1 0x20 ADD SWAP1 DUP2 MSTORE PUSH1 0x20 ADD PUSH1 0x0 KECCAK256 PUSH1 0x0 ADD PUSH1 0x2 ADD PUSH1 0x1 PUSH2 0x100 EXP DUP2 SLOAD DUP2 PUSH1 0xFF MUL NOT AND SWAP1 DUP4 PUSH1 0x3 DUP2 GT ISZERO PUSH2 0xD72 JUMPI PUSH2 0xD71 PUSH2 0x10D1 JUMP JUMPDEST JUMPDEST MUL OR SWAP1 SSTORE POP PUSH1 0x1 PUSH1 0x0 DUP1 DUP6 DUP2 MSTORE PUSH1 0x20 ADD SWAP1 DUP2 MSTORE PUSH1 0x20 ADD PUSH1 0x0 KECCAK256 PUSH1 0x4 ADD PUSH1 0x2 ADD PUSH1 0x1 PUSH2 0x100 EXP DUP2 SLOAD DUP2 PUSH1 0xFF MUL NOT AND SWAP1 DUP4 PUSH1 0x3 DUP2 GT ISZERO PUSH2 0xDB3 JUMPI PUSH2 0xDB2 PUSH2 0x10D1 JUMP JUMPDEST JUMPDEST MUL OR SWAP1 SSTORE POP PUSH2 0xEAA JUMP JUMPDEST DUP1 PUSH1 0xFF AND PUSH1 0x3 PUSH1 0x1 DUP5 PUSH2 0xDD0 SWAP2 SWAP1 PUSH2 0xFF4 JUMP JUMPDEST PUSH2 0xDDA SWAP2 SWAP1 PUSH2 0x1042 JUMP JUMPDEST PUSH1 0xFF AND EQ ISZERO PUSH2 0xE6A JUMPI PUSH1 0x1 PUSH1 0x0 DUP1 DUP6 DUP2 MSTORE PUSH1 0x20 ADD SWAP1 DUP2 MSTORE PUSH1 0x20 ADD PUSH1 0x0 KECCAK256 PUSH1 0x0 ADD PUSH1 0x2 ADD PUSH1 0x1 PUSH2 0x100 EXP DUP2 SLOAD DUP2 PUSH1 0xFF MUL NOT AND SWAP1 DUP4 PUSH1 0x3 DUP2 GT ISZERO PUSH2 0xE1F JUMPI PUSH2 0xE1E PUSH2 0x10D1 JUMP JUMPDEST JUMPDEST MUL OR SWAP1 SSTORE POP PUSH1 0x0 DUP1 PUSH1 0x0 DUP6 DUP2 MSTORE PUSH1 0x20 ADD SWAP1 DUP2 MSTORE PUSH1 0x20 ADD PUSH1 0x0 KECCAK256 PUSH1 0x4 ADD PUSH1 0x2 ADD PUSH1 0x1 PUSH2 0x100 EXP DUP2 SLOAD DUP2 PUSH1 0xFF MUL NOT AND SWAP1 DUP4 PUSH1 0x3 DUP2 GT ISZERO PUSH2 0xE60 JUMPI PUSH2 0xE5F PUSH2 0x10D1 JUMP JUMPDEST JUMPDEST MUL OR SWAP1 SSTORE POP PUSH2 0xEA9 JUMP JUMPDEST PUSH1 0x3 PUSH1 0x0 DUP1 DUP6 DUP2 MSTORE PUSH1 0x20 ADD SWAP1 DUP2 MSTORE PUSH1 0x20 ADD PUSH1 0x0 KECCAK256 PUSH1 0x3 ADD PUSH1 0x0 PUSH2 0x100 EXP DUP2 SLOAD DUP2 PUSH1 0xFF MUL NOT AND SWAP1 DUP4 PUSH1 0x3 DUP2 GT ISZERO PUSH2 0xEA3 JUMPI PUSH2 0xEA2 PUSH2 0x10D1 JUMP JUMPDEST JUMPDEST MUL OR SWAP1 SSTORE POP JUMPDEST JUMPDEST JUMPDEST POP POP POP JUMP JUMPDEST PUSH1 0x0 DUP2 CALLDATALOAD SWAP1 POP PUSH2 0xEBF DUP2 PUSH2 0x1105 JUMP JUMPDEST SWAP3 SWAP2 POP POP JUMP JUMPDEST PUSH1 0x0 DUP2 CALLDATALOAD SWAP1 POP PUSH2 0xED4 DUP2 PUSH2 0x1115 JUMP JUMPDEST SWAP3 SWAP2 POP POP JUMP JUMPDEST PUSH1 0x0 PUSH1 0x20 DUP3 DUP5 SUB SLT ISZERO PUSH2 0xEF0 JUMPI PUSH2 0xEEF PUSH2 0x1100 JUMP JUMPDEST JUMPDEST PUSH1 0x0 PUSH2 0xEFE DUP5 DUP3 DUP6 ADD PUSH2 0xEB0 JUMP JUMPDEST SWAP2 POP POP SWAP3 SWAP2 POP POP JUMP JUMPDEST PUSH1 0x0 PUSH1 0x20 DUP3 DUP5 SUB SLT ISZERO PUSH2 0xF1D JUMPI PUSH2 0xF1C PUSH2 0x1100 JUMP JUMPDEST JUMPDEST PUSH1 0x0 PUSH2 0xF2B DUP5 DUP3 DUP6 ADD PUSH2 0xEC5 JUMP JUMPDEST SWAP2 POP POP SWAP3 SWAP2 POP POP JUMP JUMPDEST PUSH1 0x0 DUP1 PUSH1 0x40 DUP4 DUP6 SUB SLT ISZERO PUSH2 0xF4B JUMPI PUSH2 0xF4A PUSH2 0x1100 JUMP JUMPDEST JUMPDEST PUSH1 0x0 PUSH2 0xF59 DUP6 DUP3 DUP7 ADD PUSH2 0xEC5 JUMP JUMPDEST SWAP3 POP POP PUSH1 0x20 PUSH2 0xF6A DUP6 DUP3 DUP7 ADD PUSH2 0xEB0 JUMP JUMPDEST SWAP2 POP POP SWAP3 POP SWAP3 SWAP1 POP JUMP JUMPDEST PUSH2 0xF7D DUP2 PUSH2 0x102B JUMP JUMPDEST DUP3 MSTORE POP POP JUMP JUMPDEST PUSH1 0x0 PUSH1 0x20 DUP3 ADD SWAP1 POP PUSH2 0xF98 PUSH1 0x0 DUP4 ADD DUP5 PUSH2 0xF74 JUMP JUMPDEST SWAP3 SWAP2 POP POP JUMP JUMPDEST PUSH1 0x0 PUSH2 0xFA9 DUP3 PUSH2 0x102B JUMP JUMPDEST SWAP2 POP PUSH2 0xFB4 DUP4 PUSH2 0x102B JUMP JUMPDEST SWAP3 POP DUP3 PUSH32 0xFFFFFFFFFFFFFFFFFFFFFFFFFFFFFFFFFFFFFFFFFFFFFFFFFFFFFFFFFFFFFFFF SUB DUP3 GT ISZERO PUSH2 0xFE9 JUMPI PUSH2 0xFE8 PUSH2 0x1073 JUMP JUMPDEST JUMPDEST DUP3 DUP3 ADD SWAP1 POP SWAP3 SWAP2 POP POP JUMP JUMPDEST PUSH1 0x0 PUSH2 0xFFF DUP3 PUSH2 0x1035 JUMP JUMPDEST SWAP2 POP PUSH2 0x100A DUP4 PUSH2 0x1035 JUMP JUMPDEST SWAP3 POP DUP3 PUSH1 0xFF SUB DUP3 GT ISZERO PUSH2 0x1020 JUMPI PUSH2 0x101F PUSH2 0x1073 JUMP JUMPDEST JUMPDEST DUP3 DUP3 ADD SWAP1 POP SWAP3 SWAP2 POP POP JUMP JUMPDEST PUSH1 0x0 DUP2 SWAP1 POP SWAP2 SWAP1 POP JUMP JUMPDEST PUSH1 0x0 PUSH1 0xFF DUP3 AND SWAP1 POP SWAP2 SWAP1 POP JUMP JUMPDEST PUSH1 0x0 PUSH2 0x104D DUP3 PUSH2 0x1035 JUMP JUMPDEST SWAP2 POP PUSH2 0x1058 DUP4 PUSH2 0x1035 JUMP JUMPDEST SWAP3 POP DUP3 PUSH2 0x1068 JUMPI PUSH2 0x1067 PUSH2 0x10A2 JUMP JUMPDEST JUMPDEST DUP3 DUP3 MOD SWAP1 POP SWAP3 SWAP2 POP POP JUMP JUMPDEST PUSH32 0x4E487B7100000000000000000000000000000000000000000000000000000000 PUSH1 0x0 MSTORE PUSH1 0x11 PUSH1 0x4 MSTORE PUSH1 0x24 PUSH1 0x0 REVERT JUMPDEST PUSH32 0x4E487B7100000000000000000000000000000000000000000000000000000000 PUSH1 0x0 MSTORE PUSH1 0x12 PUSH1 0x4 MSTORE PUSH1 0x24 PUSH1 0x0 REVERT JUMPDEST PUSH32 0x4E487B7100000000000000000000000000000000000000000000000000000000 PUSH1 0x0 MSTORE PUSH1 0x21 PUSH1 0x4 MSTORE PUSH1 0x24 PUSH1 0x0 REVERT JUMPDEST PUSH1 0x0 DUP1 REVERT JUMPDEST PUSH1 0x3 DUP2 LT PUSH2 0x1112 JUMPI PUSH1 0x0 DUP1 REVERT JUMPDEST POP JUMP JUMPDEST PUSH2 0x111E DUP2 PUSH2 0x102B JUMP JUMPDEST DUP2 EQ PUSH2 0x1129 JUMPI PUSH1 0x0 DUP1 REVERT JUMPDEST POP JUMP INVALID LOG2 PUSH5 0x6970667358 0x22 SLT KECCAK256 PUSH2 0xF4C 0xCE REVERT 0xE INVALID 0xEF 0xE6 DUP10 0x5E PUSH2 0x41A7 0xD7 0x2C NUMBER 0xDF MSTORE8 0x22 MSIZE PUSH25 0x999A62E59FA4AFF1162B64736F6C6343000807003300000000 "
				},
				"gasEstimates": {
					"creation": {
						"codeDepositCost": "890000",
						"executionCost": "5911",
						"totalCost": "895911"
					},
					"external": {
						"createRoom(uint8)": "infinite",
						"joinRoom(uint256,uint8)": "infinite",
						"payout(uint256)": "infinite"
					},
					"internal": {
						"compareHands(uint256)": "infinite"
					}
				},
				"methodIdentifiers": {
					"createRoom(uint8)": "0f36f3b5",
					"joinRoom(uint256,uint8)": "79b15776",
					"payout(uint256)": "e1152343"
				}
			},
			"userdoc": {
				"kind": "user",
				"methods": {},
				"version": 1
			}
		}
	}
}